{
  "_format": "hh-sol-artifact-1",
  "contractName": "DataProtectorSharing",
  "sourceName": "contracts/DataProtectorSharing.sol",
  "abi": [
    {
      "inputs": [
        {
          "internalType": "address",
          "name": "_proxy",
          "type": "address"
        },
        {
          "internalType": "contract IRegistry",
          "name": "protectedDataRegistry_",
          "type": "address"
        },
        {
          "internalType": "contract AddOnlyAppWhitelistRegistry",
          "name": "addOnlyAppWhitelistRegistry_",
          "type": "address"
        }
      ],
      "stateMutability": "nonpayable",
      "type": "constructor"
    },
    {
      "inputs": [],
      "name": "AccessControlBadConfirmation",
      "type": "error"
    },
    {
      "inputs": [
        {
          "internalType": "address",
          "name": "account",
          "type": "address"
        },
        {
          "internalType": "bytes32",
          "name": "neededRole",
          "type": "bytes32"
        }
      ],
      "name": "AccessControlUnauthorizedAccount",
      "type": "error"
    },
    {
      "inputs": [
        {
          "internalType": "address",
          "name": "target",
          "type": "address"
        }
      ],
      "name": "AddressEmptyCode",
      "type": "error"
    },
    {
      "inputs": [
        {
          "internalType": "address",
          "name": "app",
          "type": "address"
        }
      ],
      "name": "AppNotWhitelistedForProtectedData",
      "type": "error"
    },
    {
      "inputs": [
        {
          "internalType": "uint256",
          "name": "collectionTokenId",
          "type": "uint256"
        }
      ],
      "name": "CollectionNotEmpty",
      "type": "error"
    },
    {
      "inputs": [
        {
          "internalType": "uint48",
          "name": "_duration",
          "type": "uint48"
        }
      ],
      "name": "DurationInvalid",
      "type": "error"
    },
    {
      "inputs": [
        {
          "internalType": "address",
          "name": "sender",
          "type": "address"
        },
        {
          "internalType": "uint256",
          "name": "tokenId",
          "type": "uint256"
        },
        {
          "internalType": "address",
          "name": "owner",
          "type": "address"
        }
      ],
      "name": "ERC721IncorrectOwner",
      "type": "error"
    },
    {
      "inputs": [
        {
          "internalType": "address",
          "name": "operator",
          "type": "address"
        },
        {
          "internalType": "uint256",
          "name": "tokenId",
          "type": "uint256"
        }
      ],
      "name": "ERC721InsufficientApproval",
      "type": "error"
    },
    {
      "inputs": [
        {
          "internalType": "address",
          "name": "approver",
          "type": "address"
        }
      ],
      "name": "ERC721InvalidApprover",
      "type": "error"
    },
    {
      "inputs": [
        {
          "internalType": "address",
          "name": "operator",
          "type": "address"
        }
      ],
      "name": "ERC721InvalidOperator",
      "type": "error"
    },
    {
      "inputs": [
        {
          "internalType": "address",
          "name": "owner",
          "type": "address"
        }
      ],
      "name": "ERC721InvalidOwner",
      "type": "error"
    },
    {
      "inputs": [
        {
          "internalType": "address",
          "name": "receiver",
          "type": "address"
        }
      ],
      "name": "ERC721InvalidReceiver",
      "type": "error"
    },
    {
      "inputs": [
        {
          "internalType": "address",
          "name": "sender",
          "type": "address"
        }
      ],
      "name": "ERC721InvalidSender",
      "type": "error"
    },
    {
      "inputs": [
        {
          "internalType": "uint256",
          "name": "tokenId",
          "type": "uint256"
        }
      ],
      "name": "ERC721NonexistentToken",
      "type": "error"
    },
    {
      "inputs": [],
      "name": "EmptyCallData",
      "type": "error"
    },
    {
      "inputs": [],
      "name": "FailedCall",
      "type": "error"
    },
    {
      "inputs": [
        {
          "internalType": "address",
          "name": "_appWhitelist",
          "type": "address"
        }
      ],
      "name": "InvalidAppWhitelist",
      "type": "error"
    },
    {
      "inputs": [],
      "name": "InvalidInitialization",
      "type": "error"
    },
    {
      "inputs": [
        {
          "internalType": "address",
          "name": "protectedData",
          "type": "address"
        },
        {
          "internalType": "uint72",
          "name": "price",
          "type": "uint72"
        }
      ],
      "name": "InvalidPriceForPurchase",
      "type": "error"
    },
    {
      "inputs": [
        {
          "internalType": "address",
          "name": "protectedData",
          "type": "address"
        },
        {
          "components": [
            {
              "internalType": "uint72",
              "name": "price",
              "type": "uint72"
            },
            {
              "internalType": "uint40",
              "name": "duration",
              "type": "uint40"
            }
          ],
          "internalType": "struct IRental.RentingParams",
          "name": "rentingParams",
          "type": "tuple"
        }
      ],
      "name": "InvalidRentingParams",
      "type": "error"
    },
    {
      "inputs": [
        {
          "internalType": "uint256",
          "name": "collectionTokenId",
          "type": "uint256"
        },
        {
          "components": [
            {
              "internalType": "uint72",
              "name": "price",
              "type": "uint72"
            },
            {
              "internalType": "uint40",
              "name": "duration",
              "type": "uint40"
            }
          ],
          "internalType": "struct ISubscription.SubscriptionParams",
          "name": "subscriptionParams",
          "type": "tuple"
        }
      ],
      "name": "InvalidSubscriptionParams",
      "type": "error"
    },
    {
      "inputs": [
        {
          "internalType": "uint256",
          "name": "collectionTokenId",
          "type": "uint256"
        },
        {
          "internalType": "address",
          "name": "protectedDatas",
          "type": "address"
        }
      ],
      "name": "NoValidRentalOrSubscription",
      "type": "error"
    },
    {
      "inputs": [],
      "name": "NotAnOwnerOrApprovedOperator",
      "type": "error"
    },
    {
      "inputs": [
        {
          "internalType": "uint256",
          "name": "collectionTokenId",
          "type": "uint256"
        }
      ],
      "name": "NotCollectionOperator",
      "type": "error"
    },
    {
      "inputs": [],
      "name": "NotInitializing",
      "type": "error"
    },
    {
      "inputs": [
        {
          "internalType": "uint256",
          "name": "collectionTokenId",
          "type": "uint256"
        }
      ],
      "name": "OnGoingCollectionSubscriptions",
      "type": "error"
    },
    {
      "inputs": [
        {
          "internalType": "address",
          "name": "_caller",
          "type": "address"
        }
      ],
      "name": "OnlyPocoCallerAuthorized",
      "type": "error"
    },
    {
      "inputs": [
        {
          "internalType": "uint256",
          "name": "_collectionTokenId",
          "type": "uint256"
        },
        {
          "internalType": "address",
          "name": "_protectedData",
          "type": "address"
        }
      ],
      "name": "ProctedDataInSubscription",
      "type": "error"
    },
    {
      "inputs": [
        {
          "internalType": "uint256",
          "name": "collectionTokenId",
          "type": "uint256"
        },
        {
          "internalType": "address",
          "name": "protectedData",
          "type": "address"
        }
      ],
      "name": "ProtectedDataAvailableForRenting",
      "type": "error"
    },
    {
      "inputs": [
        {
          "internalType": "uint256",
          "name": "collectionTokenId",
          "type": "uint256"
        },
        {
          "internalType": "address",
          "name": "protectedData",
          "type": "address"
        }
      ],
      "name": "ProtectedDataAvailableInSubscription",
      "type": "error"
    },
    {
      "inputs": [
        {
          "internalType": "address",
          "name": "protectedData",
          "type": "address"
        }
      ],
      "name": "ProtectedDataCurrentlyBeingRented",
      "type": "error"
    },
    {
      "inputs": [
        {
          "internalType": "address",
          "name": "protectedData",
          "type": "address"
        }
      ],
      "name": "ProtectedDataForSale",
      "type": "error"
    },
    {
      "inputs": [
        {
          "internalType": "address",
          "name": "protectedData",
          "type": "address"
        }
      ],
      "name": "ProtectedDataNotAvailableForRenting",
      "type": "error"
    },
    {
      "inputs": [
        {
          "internalType": "address",
          "name": "protectedData",
          "type": "address"
        }
      ],
      "name": "ProtectedDataNotForSale",
      "type": "error"
    },
    {
      "inputs": [
        {
          "components": [
            {
              "internalType": "address",
              "name": "workerpool",
              "type": "address"
            },
            {
              "internalType": "uint256",
              "name": "workerpoolprice",
              "type": "uint256"
            },
            {
              "internalType": "uint256",
              "name": "volume",
              "type": "uint256"
            },
            {
              "internalType": "bytes32",
              "name": "tag",
              "type": "bytes32"
            },
            {
              "internalType": "uint256",
              "name": "category",
              "type": "uint256"
            },
            {
              "internalType": "uint256",
              "name": "trust",
              "type": "uint256"
            },
            {
              "internalType": "address",
              "name": "apprestrict",
              "type": "address"
            },
            {
              "internalType": "address",
              "name": "datasetrestrict",
              "type": "address"
            },
            {
              "internalType": "address",
              "name": "requesterrestrict",
              "type": "address"
            },
            {
              "internalType": "bytes32",
              "name": "salt",
              "type": "bytes32"
            },
            {
              "internalType": "bytes",
              "name": "sign",
              "type": "bytes"
            }
          ],
          "internalType": "struct IexecLibOrders_v5.WorkerpoolOrder",
          "name": "workerpoolOrder",
          "type": "tuple"
        }
      ],
      "name": "WorkerpoolOrderNotFree",
      "type": "error"
    },
    {
      "anonymous": false,
      "inputs": [
        {
          "indexed": true,
          "internalType": "address",
          "name": "owner",
          "type": "address"
        },
        {
          "indexed": true,
          "internalType": "address",
          "name": "approved",
          "type": "address"
        },
        {
          "indexed": true,
          "internalType": "uint256",
          "name": "tokenId",
          "type": "uint256"
        }
      ],
      "name": "Approval",
      "type": "event"
    },
    {
      "anonymous": false,
      "inputs": [
        {
          "indexed": true,
          "internalType": "address",
          "name": "owner",
          "type": "address"
        },
        {
          "indexed": true,
          "internalType": "address",
          "name": "operator",
          "type": "address"
        },
        {
          "indexed": false,
          "internalType": "bool",
          "name": "approved",
          "type": "bool"
        }
      ],
      "name": "ApprovalForAll",
      "type": "event"
    },
    {
      "anonymous": false,
      "inputs": [
        {
          "indexed": false,
          "internalType": "uint64",
          "name": "version",
          "type": "uint64"
        }
      ],
      "name": "Initialized",
      "type": "event"
    },
    {
      "anonymous": false,
      "inputs": [
        {
          "indexed": false,
          "internalType": "uint256",
          "name": "collectionTokenId",
          "type": "uint256"
        },
        {
          "indexed": false,
          "internalType": "address",
          "name": "protectedData",
          "type": "address"
        },
        {
          "indexed": false,
          "internalType": "address",
          "name": "renter",
          "type": "address"
        },
        {
          "indexed": false,
          "internalType": "uint48",
          "name": "endDate",
          "type": "uint48"
        }
      ],
      "name": "NewRental",
      "type": "event"
    },
    {
      "anonymous": false,
      "inputs": [
        {
          "indexed": false,
          "internalType": "uint256",
          "name": "collectionTokenId",
          "type": "uint256"
        },
        {
          "indexed": true,
          "internalType": "address",
          "name": "subscriber",
          "type": "address"
        },
        {
          "indexed": false,
          "internalType": "uint48",
          "name": "endDate",
          "type": "uint48"
        }
      ],
      "name": "NewSubscription",
      "type": "event"
    },
    {
      "anonymous": false,
      "inputs": [
        {
          "indexed": false,
          "internalType": "uint256",
          "name": "collectionTokenId",
          "type": "uint256"
        },
        {
          "components": [
            {
              "internalType": "uint72",
              "name": "price",
              "type": "uint72"
            },
            {
              "internalType": "uint40",
              "name": "duration",
              "type": "uint40"
            }
          ],
          "indexed": false,
          "internalType": "struct ISubscription.SubscriptionParams",
          "name": "subscriptionParams",
          "type": "tuple"
        }
      ],
      "name": "NewSubscriptionParams",
      "type": "event"
    },
    {
      "anonymous": false,
      "inputs": [
        {
          "indexed": false,
          "internalType": "uint256",
          "name": "collectionTokenId",
          "type": "uint256"
        },
        {
          "indexed": false,
          "internalType": "address",
          "name": "protectedData",
          "type": "address"
        },
        {
          "components": [
            {
              "internalType": "uint72",
              "name": "price",
              "type": "uint72"
            },
            {
              "internalType": "uint40",
              "name": "duration",
              "type": "uint40"
            }
          ],
          "indexed": false,
          "internalType": "struct IRental.RentingParams",
          "name": "rentingParams",
          "type": "tuple"
        }
      ],
      "name": "ProtectedDataAddedForRenting",
      "type": "event"
    },
    {
      "anonymous": false,
      "inputs": [
        {
          "indexed": false,
          "internalType": "uint256",
          "name": "collectionTokenId",
          "type": "uint256"
        },
        {
          "indexed": false,
          "internalType": "address",
          "name": "protectedData",
          "type": "address"
        },
        {
          "indexed": false,
          "internalType": "uint72",
          "name": "price",
          "type": "uint72"
        }
      ],
      "name": "ProtectedDataAddedForSale",
      "type": "event"
    },
    {
      "anonymous": false,
      "inputs": [
        {
          "indexed": false,
          "internalType": "uint256",
          "name": "collectionTokenId",
          "type": "uint256"
        },
        {
          "indexed": false,
          "internalType": "address",
          "name": "protectedData",
          "type": "address"
        }
      ],
      "name": "ProtectedDataAddedForSubscription",
      "type": "event"
    },
    {
      "anonymous": false,
      "inputs": [
        {
          "indexed": false,
          "internalType": "bytes32",
          "name": "dealId",
          "type": "bytes32"
        },
        {
          "indexed": false,
          "internalType": "address",
          "name": "protectedData",
          "type": "address"
        },
        {
          "indexed": false,
          "internalType": "enum IDataProtectorSharing.Mode",
          "name": "mode",
          "type": "uint8"
        }
      ],
      "name": "ProtectedDataConsumed",
      "type": "event"
    },
    {
      "anonymous": false,
      "inputs": [
        {
          "indexed": false,
          "internalType": "uint256",
          "name": "collectionTokenId",
          "type": "uint256"
        },
        {
          "indexed": false,
          "internalType": "address",
          "name": "protectedData",
          "type": "address"
        }
      ],
      "name": "ProtectedDataRemovedFromRenting",
      "type": "event"
    },
    {
      "anonymous": false,
      "inputs": [
        {
          "indexed": false,
          "internalType": "uint256",
          "name": "collectionTokenId",
          "type": "uint256"
        },
        {
          "indexed": false,
          "internalType": "address",
          "name": "protectedData",
          "type": "address"
        }
      ],
      "name": "ProtectedDataRemovedFromSale",
      "type": "event"
    },
    {
      "anonymous": false,
      "inputs": [
        {
          "indexed": false,
          "internalType": "uint256",
          "name": "collectionTokenId",
          "type": "uint256"
        },
        {
          "indexed": false,
          "internalType": "address",
          "name": "protectedData",
          "type": "address"
        }
      ],
      "name": "ProtectedDataRemovedFromSubscription",
      "type": "event"
    },
    {
      "anonymous": false,
      "inputs": [
        {
          "indexed": false,
          "internalType": "uint256",
          "name": "collectionTokenIdFrom",
          "type": "uint256"
        },
        {
          "indexed": false,
          "internalType": "address",
          "name": "to",
          "type": "address"
        },
        {
          "indexed": false,
          "internalType": "address",
          "name": "protectedData",
          "type": "address"
        }
      ],
      "name": "ProtectedDataSold",
      "type": "event"
    },
    {
      "anonymous": false,
      "inputs": [
        {
          "indexed": false,
          "internalType": "address",
          "name": "protectedData",
          "type": "address"
        },
        {
          "indexed": false,
          "internalType": "uint256",
          "name": "newCollection",
          "type": "uint256"
        },
        {
          "indexed": false,
          "internalType": "uint256",
          "name": "oldCollection",
          "type": "uint256"
        },
        {
          "indexed": false,
          "internalType": "address",
          "name": "addOnlyAppWhitelist",
          "type": "address"
        }
      ],
      "name": "ProtectedDataTransfer",
      "type": "event"
    },
    {
      "anonymous": false,
      "inputs": [
        {
          "indexed": true,
          "internalType": "bytes32",
          "name": "role",
          "type": "bytes32"
        },
        {
          "indexed": true,
          "internalType": "bytes32",
          "name": "previousAdminRole",
          "type": "bytes32"
        },
        {
          "indexed": true,
          "internalType": "bytes32",
          "name": "newAdminRole",
          "type": "bytes32"
        }
      ],
      "name": "RoleAdminChanged",
      "type": "event"
    },
    {
      "anonymous": false,
      "inputs": [
        {
          "indexed": true,
          "internalType": "bytes32",
          "name": "role",
          "type": "bytes32"
        },
        {
          "indexed": true,
          "internalType": "address",
          "name": "account",
          "type": "address"
        },
        {
          "indexed": true,
          "internalType": "address",
          "name": "sender",
          "type": "address"
        }
      ],
      "name": "RoleGranted",
      "type": "event"
    },
    {
      "anonymous": false,
      "inputs": [
        {
          "indexed": true,
          "internalType": "bytes32",
          "name": "role",
          "type": "bytes32"
        },
        {
          "indexed": true,
          "internalType": "address",
          "name": "account",
          "type": "address"
        },
        {
          "indexed": true,
          "internalType": "address",
          "name": "sender",
          "type": "address"
        }
      ],
      "name": "RoleRevoked",
      "type": "event"
    },
    {
      "anonymous": false,
      "inputs": [
        {
          "indexed": true,
          "internalType": "address",
          "name": "from",
          "type": "address"
        },
        {
          "indexed": true,
          "internalType": "address",
          "name": "to",
          "type": "address"
        },
        {
          "indexed": true,
          "internalType": "uint256",
          "name": "tokenId",
          "type": "uint256"
        }
      ],
      "name": "Transfer",
      "type": "event"
    },
    {
      "inputs": [],
      "name": "ADD_ONLY_APP_WHITELIST_REGISTRY",
      "outputs": [
        {
          "internalType": "contract AddOnlyAppWhitelistRegistry",
          "name": "",
          "type": "address"
        }
      ],
      "stateMutability": "view",
      "type": "function"
    },
    {
      "inputs": [],
      "name": "DEFAULT_ADMIN_ROLE",
      "outputs": [
        {
          "internalType": "bytes32",
          "name": "",
          "type": "bytes32"
        }
      ],
      "stateMutability": "view",
      "type": "function"
    },
    {
      "inputs": [
        {
          "internalType": "uint256",
          "name": "_collectionTokenId",
          "type": "uint256"
        },
        {
          "internalType": "address",
          "name": "_protectedData",
          "type": "address"
        },
        {
          "internalType": "contract IAddOnlyAppWhitelist",
          "name": "_appWhitelist",
          "type": "address"
        }
      ],
      "name": "addProtectedDataToCollection",
      "outputs": [],
      "stateMutability": "nonpayable",
      "type": "function"
    },
    {
      "inputs": [
        {
          "internalType": "address",
          "name": "to",
          "type": "address"
        },
        {
          "internalType": "uint256",
          "name": "tokenId",
          "type": "uint256"
        }
      ],
      "name": "approve",
      "outputs": [],
      "stateMutability": "nonpayable",
      "type": "function"
    },
    {
      "inputs": [
        {
          "internalType": "address",
          "name": "owner",
          "type": "address"
        }
      ],
      "name": "balanceOf",
      "outputs": [
        {
          "internalType": "uint256",
          "name": "",
          "type": "uint256"
        }
      ],
      "stateMutability": "view",
      "type": "function"
    },
    {
      "inputs": [
        {
          "internalType": "uint256",
          "name": "tokenId",
          "type": "uint256"
        }
      ],
      "name": "burn",
      "outputs": [],
      "stateMutability": "nonpayable",
      "type": "function"
    },
    {
      "inputs": [
        {
          "internalType": "address",
          "name": "_protectedData",
          "type": "address"
        },
        {
          "internalType": "address",
          "name": "_to",
          "type": "address"
        },
        {
          "internalType": "uint72",
          "name": "_price",
          "type": "uint72"
        }
      ],
      "name": "buyProtectedData",
      "outputs": [],
      "stateMutability": "nonpayable",
      "type": "function"
    },
    {
      "inputs": [
        {
          "internalType": "uint256",
          "name": "",
          "type": "uint256"
        }
      ],
      "name": "collectionDetails",
      "outputs": [
        {
          "internalType": "uint256",
          "name": "size",
          "type": "uint256"
        },
        {
          "internalType": "uint48",
          "name": "lastSubscriptionExpiration",
          "type": "uint48"
        },
        {
          "components": [
            {
              "internalType": "uint72",
              "name": "price",
              "type": "uint72"
            },
            {
              "internalType": "uint40",
              "name": "duration",
              "type": "uint40"
            }
          ],
          "internalType": "struct ISubscription.SubscriptionParams",
          "name": "subscriptionParams",
          "type": "tuple"
        }
      ],
      "stateMutability": "view",
      "type": "function"
    },
    {
      "inputs": [
        {
          "internalType": "address",
          "name": "_protectedData",
          "type": "address"
        },
        {
          "components": [
            {
              "internalType": "address",
              "name": "workerpool",
              "type": "address"
            },
            {
              "internalType": "uint256",
              "name": "workerpoolprice",
              "type": "uint256"
            },
            {
              "internalType": "uint256",
              "name": "volume",
              "type": "uint256"
            },
            {
              "internalType": "bytes32",
              "name": "tag",
              "type": "bytes32"
            },
            {
              "internalType": "uint256",
              "name": "category",
              "type": "uint256"
            },
            {
              "internalType": "uint256",
              "name": "trust",
              "type": "uint256"
            },
            {
              "internalType": "address",
              "name": "apprestrict",
              "type": "address"
            },
            {
              "internalType": "address",
              "name": "datasetrestrict",
              "type": "address"
            },
            {
              "internalType": "address",
              "name": "requesterrestrict",
              "type": "address"
            },
            {
              "internalType": "bytes32",
              "name": "salt",
              "type": "bytes32"
            },
            {
              "internalType": "bytes",
              "name": "sign",
              "type": "bytes"
            }
          ],
          "internalType": "struct IexecLibOrders_v5.WorkerpoolOrder",
          "name": "_workerpoolOrder",
          "type": "tuple"
        },
        {
          "internalType": "address",
          "name": "_app",
          "type": "address"
        }
      ],
      "name": "consumeProtectedData",
      "outputs": [
        {
          "internalType": "bytes32",
          "name": "dealid",
          "type": "bytes32"
        }
      ],
      "stateMutability": "nonpayable",
      "type": "function"
    },
    {
      "inputs": [
        {
          "internalType": "address",
          "name": "_to",
          "type": "address"
        }
      ],
      "name": "createCollection",
      "outputs": [
        {
          "internalType": "uint256",
          "name": "",
          "type": "uint256"
        }
      ],
      "stateMutability": "nonpayable",
      "type": "function"
    },
    {
      "inputs": [
        {
          "internalType": "address",
          "name": "",
          "type": "address"
        }
      ],
      "name": "earning",
      "outputs": [
        {
          "internalType": "uint256",
          "name": "",
          "type": "uint256"
        }
      ],
      "stateMutability": "view",
      "type": "function"
    },
    {
      "inputs": [
        {
          "internalType": "uint256",
          "name": "tokenId",
          "type": "uint256"
        }
      ],
      "name": "getApproved",
      "outputs": [
        {
          "internalType": "address",
          "name": "",
          "type": "address"
        }
      ],
      "stateMutability": "view",
      "type": "function"
    },
    {
      "inputs": [
        {
          "internalType": "uint256",
          "name": "_collectionTokenId",
          "type": "uint256"
        },
        {
          "internalType": "address",
          "name": "_subscriberAddress",
          "type": "address"
        }
      ],
      "name": "getCollectionSubscriber",
      "outputs": [
        {
          "internalType": "uint48",
          "name": "",
          "type": "uint48"
        }
      ],
      "stateMutability": "view",
      "type": "function"
    },
    {
      "inputs": [
        {
          "internalType": "address",
          "name": "_protectedData",
          "type": "address"
        },
        {
          "internalType": "address",
          "name": "_renterAddress",
          "type": "address"
        }
      ],
      "name": "getProtectedDataRenter",
      "outputs": [
        {
          "internalType": "uint48",
          "name": "",
          "type": "uint48"
        }
      ],
      "stateMutability": "view",
      "type": "function"
    },
    {
      "inputs": [
        {
          "internalType": "bytes32",
          "name": "role",
          "type": "bytes32"
        }
      ],
      "name": "getRoleAdmin",
      "outputs": [
        {
          "internalType": "bytes32",
          "name": "",
          "type": "bytes32"
        }
      ],
      "stateMutability": "view",
      "type": "function"
    },
    {
      "inputs": [
        {
          "internalType": "bytes32",
          "name": "role",
          "type": "bytes32"
        },
        {
          "internalType": "address",
          "name": "account",
          "type": "address"
        }
      ],
      "name": "grantRole",
      "outputs": [],
      "stateMutability": "nonpayable",
      "type": "function"
    },
    {
      "inputs": [
        {
          "internalType": "bytes32",
          "name": "role",
          "type": "bytes32"
        },
        {
          "internalType": "address",
          "name": "account",
          "type": "address"
        }
      ],
      "name": "hasRole",
      "outputs": [
        {
          "internalType": "bool",
          "name": "",
          "type": "bool"
        }
      ],
      "stateMutability": "view",
      "type": "function"
    },
    {
      "inputs": [
        {
          "internalType": "address",
          "name": "admin",
          "type": "address"
        }
      ],
      "name": "initialize",
      "outputs": [],
      "stateMutability": "nonpayable",
      "type": "function"
    },
    {
      "inputs": [
        {
          "internalType": "address",
          "name": "owner",
          "type": "address"
        },
        {
          "internalType": "address",
          "name": "operator",
          "type": "address"
        }
      ],
      "name": "isApprovedForAll",
      "outputs": [
        {
          "internalType": "bool",
          "name": "",
          "type": "bool"
        }
      ],
      "stateMutability": "view",
      "type": "function"
    },
    {
      "inputs": [
        {
          "internalType": "bytes[]",
          "name": "data",
          "type": "bytes[]"
        }
      ],
      "name": "multicall",
      "outputs": [
        {
          "internalType": "bytes[]",
          "name": "results",
          "type": "bytes[]"
        }
      ],
      "stateMutability": "nonpayable",
      "type": "function"
    },
    {
      "inputs": [],
      "name": "name",
      "outputs": [
        {
          "internalType": "string",
          "name": "",
          "type": "string"
        }
      ],
      "stateMutability": "view",
      "type": "function"
    },
    {
      "inputs": [
        {
          "internalType": "address",
          "name": "",
          "type": "address"
        },
        {
          "internalType": "address",
          "name": "",
          "type": "address"
        },
        {
          "internalType": "uint256",
          "name": "",
          "type": "uint256"
        },
        {
          "internalType": "bytes",
          "name": "",
          "type": "bytes"
        }
      ],
      "name": "onERC721Received",
      "outputs": [
        {
          "internalType": "bytes4",
          "name": "",
          "type": "bytes4"
        }
      ],
      "stateMutability": "nonpayable",
      "type": "function"
    },
    {
      "inputs": [
        {
          "internalType": "uint256",
          "name": "tokenId",
          "type": "uint256"
        }
      ],
      "name": "ownerOf",
      "outputs": [
        {
          "internalType": "address",
          "name": "",
          "type": "address"
        }
      ],
      "stateMutability": "view",
      "type": "function"
    },
    {
      "inputs": [
        {
          "internalType": "address",
          "name": "",
          "type": "address"
        }
      ],
      "name": "protectedDataDetails",
      "outputs": [
        {
          "internalType": "uint256",
          "name": "collection",
          "type": "uint256"
        },
        {
          "internalType": "contract IAddOnlyAppWhitelist",
          "name": "addOnlyAppWhitelist",
          "type": "address"
        },
        {
          "internalType": "uint48",
          "name": "lastRentalExpiration",
          "type": "uint48"
        },
        {
          "internalType": "bool",
          "name": "inSubscription",
          "type": "bool"
        },
        {
          "components": [
            {
              "internalType": "uint72",
              "name": "price",
              "type": "uint72"
            },
            {
              "internalType": "uint40",
              "name": "duration",
              "type": "uint40"
            }
          ],
          "internalType": "struct IRental.RentingParams",
          "name": "rentingParams",
          "type": "tuple"
        },
        {
          "components": [
            {
              "internalType": "bool",
              "name": "isForSale",
              "type": "bool"
            },
            {
              "internalType": "uint72",
              "name": "price",
              "type": "uint72"
            }
          ],
          "internalType": "struct ISale.SellingParams",
          "name": "sellingParams",
          "type": "tuple"
        }
      ],
      "stateMutability": "view",
      "type": "function"
    },
    {
      "inputs": [
        {
          "internalType": "address",
          "name": "_sender",
          "type": "address"
        },
        {
          "internalType": "uint256",
          "name": "",
          "type": "uint256"
        },
        {
          "internalType": "address",
          "name": "",
          "type": "address"
        },
        {
          "internalType": "bytes",
          "name": "_extraData",
          "type": "bytes"
        }
      ],
      "name": "receiveApproval",
      "outputs": [
        {
          "internalType": "bool",
          "name": "",
          "type": "bool"
        }
      ],
      "stateMutability": "nonpayable",
      "type": "function"
    },
    {
      "inputs": [
        {
          "internalType": "address",
          "name": "_protectedData",
          "type": "address"
        }
      ],
      "name": "removeProtectedDataForSale",
      "outputs": [],
      "stateMutability": "nonpayable",
      "type": "function"
    },
    {
      "inputs": [
        {
          "internalType": "address",
          "name": "_protectedData",
          "type": "address"
        }
      ],
      "name": "removeProtectedDataFromCollection",
      "outputs": [],
      "stateMutability": "nonpayable",
      "type": "function"
    },
    {
      "inputs": [
        {
          "internalType": "address",
          "name": "_protectedData",
          "type": "address"
        }
      ],
      "name": "removeProtectedDataFromRenting",
      "outputs": [],
      "stateMutability": "nonpayable",
      "type": "function"
    },
    {
      "inputs": [
        {
          "internalType": "address",
          "name": "_protectedData",
          "type": "address"
        }
      ],
      "name": "removeProtectedDataFromSubscription",
      "outputs": [],
      "stateMutability": "nonpayable",
      "type": "function"
    },
    {
      "inputs": [
        {
          "internalType": "bytes32",
          "name": "role",
          "type": "bytes32"
        },
        {
          "internalType": "address",
          "name": "callerConfirmation",
          "type": "address"
        }
      ],
      "name": "renounceRole",
      "outputs": [],
      "stateMutability": "nonpayable",
      "type": "function"
    },
    {
      "inputs": [
        {
          "internalType": "address",
          "name": "_protectedData",
          "type": "address"
        },
        {
          "components": [
            {
              "internalType": "uint72",
              "name": "price",
              "type": "uint72"
            },
            {
              "internalType": "uint40",
              "name": "duration",
              "type": "uint40"
            }
          ],
          "internalType": "struct IRental.RentingParams",
          "name": "_rentingParams",
          "type": "tuple"
        }
      ],
      "name": "rentProtectedData",
      "outputs": [
        {
          "internalType": "uint48",
          "name": "endDate",
          "type": "uint48"
        }
      ],
      "stateMutability": "nonpayable",
      "type": "function"
    },
    {
      "inputs": [
        {
          "internalType": "bytes32",
          "name": "role",
          "type": "bytes32"
        },
        {
          "internalType": "address",
          "name": "account",
          "type": "address"
        }
      ],
      "name": "revokeRole",
      "outputs": [],
      "stateMutability": "nonpayable",
      "type": "function"
    },
    {
      "inputs": [
        {
          "internalType": "address",
          "name": "from",
          "type": "address"
        },
        {
          "internalType": "address",
          "name": "to",
          "type": "address"
        },
        {
          "internalType": "uint256",
          "name": "tokenId",
          "type": "uint256"
        }
      ],
      "name": "safeTransferFrom",
      "outputs": [],
      "stateMutability": "nonpayable",
      "type": "function"
    },
    {
      "inputs": [
        {
          "internalType": "address",
          "name": "from",
          "type": "address"
        },
        {
          "internalType": "address",
          "name": "to",
          "type": "address"
        },
        {
          "internalType": "uint256",
          "name": "tokenId",
          "type": "uint256"
        },
        {
          "internalType": "bytes",
          "name": "data",
          "type": "bytes"
        }
      ],
      "name": "safeTransferFrom",
      "outputs": [],
      "stateMutability": "nonpayable",
      "type": "function"
    },
    {
      "inputs": [
        {
          "internalType": "address",
          "name": "operator",
          "type": "address"
        },
        {
          "internalType": "bool",
          "name": "approved",
          "type": "bool"
        }
      ],
      "name": "setApprovalForAll",
      "outputs": [],
      "stateMutability": "nonpayable",
      "type": "function"
    },
    {
      "inputs": [
        {
          "internalType": "address",
          "name": "_protectedData",
          "type": "address"
        },
        {
          "internalType": "uint72",
          "name": "_price",
          "type": "uint72"
        }
      ],
      "name": "setProtectedDataForSale",
      "outputs": [],
      "stateMutability": "nonpayable",
      "type": "function"
    },
    {
      "inputs": [
        {
          "internalType": "address",
          "name": "_protectedData",
          "type": "address"
        },
        {
          "components": [
            {
              "internalType": "uint72",
              "name": "price",
              "type": "uint72"
            },
            {
              "internalType": "uint40",
              "name": "duration",
              "type": "uint40"
            }
          ],
          "internalType": "struct IRental.RentingParams",
          "name": "_rentingParams",
          "type": "tuple"
        }
      ],
      "name": "setProtectedDataToRenting",
      "outputs": [],
      "stateMutability": "nonpayable",
      "type": "function"
    },
    {
      "inputs": [
        {
          "internalType": "address",
          "name": "_protectedData",
          "type": "address"
        }
      ],
      "name": "setProtectedDataToSubscription",
      "outputs": [],
      "stateMutability": "nonpayable",
      "type": "function"
    },
    {
      "inputs": [
        {
          "internalType": "uint256",
          "name": "_collectionTokenId",
          "type": "uint256"
        },
        {
          "components": [
            {
              "internalType": "uint72",
              "name": "price",
              "type": "uint72"
            },
            {
              "internalType": "uint40",
              "name": "duration",
              "type": "uint40"
            }
          ],
          "internalType": "struct ISubscription.SubscriptionParams",
          "name": "_subscriptionParams",
          "type": "tuple"
        }
      ],
      "name": "setSubscriptionParams",
      "outputs": [],
      "stateMutability": "nonpayable",
      "type": "function"
    },
    {
      "inputs": [
        {
          "internalType": "uint256",
          "name": "_collectionTokenId",
          "type": "uint256"
        },
        {
          "components": [
            {
              "internalType": "uint72",
              "name": "price",
              "type": "uint72"
            },
            {
              "internalType": "uint40",
              "name": "duration",
              "type": "uint40"
            }
          ],
          "internalType": "struct ISubscription.SubscriptionParams",
          "name": "_subscriptionParams",
          "type": "tuple"
        }
      ],
      "name": "subscribeToCollection",
      "outputs": [
        {
          "internalType": "uint48",
          "name": "endDate",
          "type": "uint48"
        }
      ],
      "stateMutability": "nonpayable",
      "type": "function"
    },
    {
      "inputs": [
        {
          "internalType": "bytes4",
          "name": "interfaceId",
          "type": "bytes4"
        }
      ],
      "name": "supportsInterface",
      "outputs": [
        {
          "internalType": "bool",
          "name": "",
          "type": "bool"
        }
      ],
      "stateMutability": "view",
      "type": "function"
    },
    {
      "inputs": [],
      "name": "symbol",
      "outputs": [
        {
          "internalType": "string",
          "name": "",
          "type": "string"
        }
      ],
      "stateMutability": "view",
      "type": "function"
    },
    {
      "inputs": [
        {
          "internalType": "uint256",
          "name": "tokenId",
          "type": "uint256"
        }
      ],
      "name": "tokenURI",
      "outputs": [
        {
          "internalType": "string",
          "name": "",
          "type": "string"
        }
      ],
      "stateMutability": "view",
      "type": "function"
    },
    {
      "inputs": [
        {
          "internalType": "address",
          "name": "from",
          "type": "address"
        },
        {
          "internalType": "address",
          "name": "to",
          "type": "address"
        },
        {
          "internalType": "uint256",
          "name": "tokenId",
          "type": "uint256"
        }
      ],
      "name": "transferFrom",
      "outputs": [],
      "stateMutability": "nonpayable",
      "type": "function"
    },
    {
      "inputs": [
        {
          "internalType": "string",
          "name": "iexecResultStorageProvider_",
          "type": "string"
        }
      ],
      "name": "updateEnv",
      "outputs": [],
      "stateMutability": "nonpayable",
      "type": "function"
    }
  ],
  "bytecode": "0x60e06040523480156200001157600080fd5b50604051620049b9380380620049b983398101604081905262000034916200012e565b6001600160a01b0383166080526200004b62000064565b6001600160a01b0391821660c0521660a0525062000182565b7ff0c57e16840df040f15088dc2f81fe391c3923bec73e23a9662efc9c229c6a00805468010000000000000000900460ff1615620000b55760405163f92ee8a960e01b815260040160405180910390fd5b80546001600160401b0390811614620001155780546001600160401b0319166001600160401b0390811782556040519081527fc7f505b2f371ae2175ee4913f4499e1f2633a7b5936321eed1cdaeb6115181d29060200160405180910390a15b50565b6001600160a01b03811681146200011557600080fd5b6000806000606084860312156200014457600080fd5b8351620001518162000118565b6020850151909350620001648162000118565b6040850151909250620001778162000118565b809150509250925092565b60805160a05160c0516147ac6200020d60003960008181610ba10152818161146701528181611c6a01528181611d0901528181611daa0152611fa40152600081816104ca0152610b16015260008181610e5f015281816115c701528181611e48015281816120020152818161228a015281816124d101528181612ac90152612d0701526147ac6000f3fe608060405234801561001057600080fd5b506004361061027f5760003560e01c80638f4ffcb11161015c578063d0b06c66116100ce578063e985e9c511610087578063e985e9c51461071a578063ea46d1aa1461072d578063f4c0fab414610772578063fe4c31a414610792578063ff19d9df146107a5578063ff811f60146107b857600080fd5b8063d0b06c6614610646578063d3c5238914610659578063d547741f1461066c578063d835c3371461067f578063dc30b8fc14610692578063dfe0bc11146106a557600080fd5b8063a22cb46511610120578063a22cb46514610598578063ac9650d8146105ab578063b88d4fde146105cb578063c3533ba2146105de578063c4d66de814610620578063c87b56dd1461063357600080fd5b80638f4ffcb11461053857806391d148541461054b57806395d89b411461055e5780639a82c2bd14610566578063a217fddf1461059057600080fd5b80632f2ff15d116101f557806342966c68116101b957806342966c68146104b25780634afecaff146104c557806353574f9e146104ec5780636352211e146104ff57806370a082311461051257806372d570ce1461052557600080fd5b80632f2ff15d146103ad578063328cb1f7146103c057806336568abe1461047957806340e6158d1461048c57806342842e0e1461049f57600080fd5b80630b9f187b116102475780630b9f187b14610314578063150b7a0214610327578063185e4e8d146103535780632069e9531461036657806323b872dd14610387578063248a9ca31461039a57600080fd5b806301d0b6341461028457806301ffc9a71461029957806306fdde03146102c1578063081812fc146102d6578063095ea7b314610301575b600080fd5b610297610292366004613534565b6107cb565b005b6102ac6102a7366004613567565b610841565b60405190151581526020015b60405180910390f35b6102c9610852565b6040516102b891906135d4565b6102e96102e43660046135e7565b6108f6565b6040516001600160a01b0390911681526020016102b8565b61029761030f366004613600565b61090b565b6102976103223660046136b7565b61091a565b61033a6103353660046136ff565b610936565b6040516001600160e01b031990911681526020016102b8565b610297610361366004613534565b610947565b610379610374366004613534565b6109c1565b6040519081526020016102b8565b61029761039536600461377e565b6109e4565b6103796103a83660046135e7565b610a74565b6102976103bb3660046137bf565b610a96565b6104676103ce366004613534565b600560209081526000918252604091829020805460018201548451808601865260028401546001600160481b038082168352600160481b90910464ffffffffff1682870152865180880190975260049094015460ff808216151588526101009091049094169486019490945290936001600160a01b03821693600160a01b830465ffffffffffff1693600160d01b909304909216919086565b6040516102b8969594939291906137ef565b6102976104873660046137bf565b610ab2565b61029761049a36600461386a565b610ae5565b6102976104ad36600461377e565b610d3f565b6102976104c03660046135e7565b610d5a565b6102e97f000000000000000000000000000000000000000000000000000000000000000081565b6102976104fa3660046138c1565b610d66565b6102e961050d3660046135e7565b610d72565b610379610520366004613534565b610d7d565b610297610533366004613534565b610dd9565b6102ac610546366004613901565b610e52565b6102ac6105593660046137bf565b610fd4565b6102c961100c565b610579610574366004613a14565b61104b565b60405165ffffffffffff90911681526020016102b8565b610379600081565b6102976105a6366004613a58565b61105f565b6105be6105b9366004613a86565b61106a565b6040516102b89190613afa565b6102976105d93660046136ff565b611151565b6105796105ec3660046137bf565b60008281526006602090815260408083206001600160a01b038516845260030190915290205465ffffffffffff1692915050565b61029761062e366004613534565b611169565b6102c96106413660046135e7565b61131b565b610297610654366004613534565b61138f565b610579610667366004613b5e565b61151d565b61029761067a3660046137bf565b61152a565b61037961068d366004613b82565b611546565b6102976106a0366004613bd0565b61168d565b61070b6106b33660046135e7565b6006602090815260009182526040918290208054600182015484518086019095526002909201546001600160481b0381168552600160481b900464ffffffffff1692840192909252909165ffffffffffff9091169083565b6040516102b893929190613bfe565b6102ac610728366004613c3a565b6117bb565b61057961073b366004613c3a565b6001600160a01b0391821660009081526005602090815260408083209390941682526003909201909152205465ffffffffffff1690565b610379610780366004613534565b60046020526000908152604090205481565b6102976107a0366004613534565b611808565b6102976107b3366004613c80565b611887565b6102976107c6366004613ca4565b6118e1565b6001600160a01b038116600090815260056020526040902080546107ee816119a3565b60048201805460ff19169055604080518281526001600160a01b03851660208201527f3fb0561a34a824ad00e49427875f49120aeba57a15999baef5fbae14e664d97291015b60405180910390a1505050565b600061084c826119d9565b92915050565b600080516020614737833981519152805460609190819061087290613cd1565b80601f016020809104026020016040519081016040528092919081815260200182805461089e90613cd1565b80156108eb5780601f106108c0576101008083540402835291602001916108eb565b820191906000526020600020905b8154815290600101906020018083116108ce57829003601f168201915b505050505091505090565b6000610901826119fe565b5061084c82611a36565b610916828233611a70565b5050565b600061092581611a7d565b60006109318382613d4d565b505050565b630a85bd0160e11b5b949350505050565b6001600160a01b0381166000908152600560205260409020805461096a816119a3565b6002820180546dffffffffff00000000000000000019169055604080518281526001600160a01b03851660208201527fb76a4377a20c8298064cd897c0095e802f478ccb93d1150d391a2dd268d7e5fb9101610834565b6000806003600081546109d390613e22565b9182905550905061084c8382611a87565b6001600160a01b038216610a1357604051633250574960e11b8152600060048201526024015b60405180910390fd5b6000610a20838333611aa1565b9050836001600160a01b0316816001600160a01b031614610a6e576040516364283d7b60e01b81526001600160a01b0380861660048301526024820184905282166044820152606401610a0a565b50505050565b6000908152600080516020614757833981519152602052604090206001015490565b610a9f82610a74565b610aa881611a7d565b610a6e8383611b1d565b6001600160a01b0381163314610adb5760405163334bd91960e11b815260040160405180910390fd5b6109318282611bc9565b610aee836119a3565b610af782611c45565b6040516331a9108f60e11b81526001600160a01b0382811660048301527f00000000000000000000000000000000000000000000000000000000000000001690636352211e90602401602060405180830381865afa158015610b5d573d6000803e3d6000fd5b505050506040513d601f19601f82011682018060405250810190610b819190613e3b565b506040516331a9108f60e11b81526001600160a01b0383811660048301527f000000000000000000000000000000000000000000000000000000000000000016906342842e0e908290636352211e90602401602060405180830381865afa158015610bf0573d6000803e3d6000fd5b505050506040513d601f19601f82011682018060405250810190610c149190613e3b565b6040516001600160e01b031960e084901b1681526001600160a01b0391821660048201523060248201529085166044820152606401600060405180830381600087803b158015610c6357600080fd5b505af1158015610c77573d6000803e3d6000fd5b505050506001600160a01b038281166000908152600560209081526040808320600180820180546001600160a01b031916968816969096179095558781558784526006909252822080549193929091610cd1908490613e58565b90915550610ce190508383611e32565b50604080516001600160a01b0380861682526020820187905260009282019290925290831660608201527f701e4990df91f34f0c6e42c039715e077aa32f81af006f9f5e8165cbda0fdddd906080015b60405180910390a150505050565b61093183838360405180602001604052806000815250611151565b61091660008233611aa1565b61093183338484611f08565b600061084c826119fe565b60006000805160206147378339815191526001600160a01b038316610db8576040516322718ad960e21b815260006004820152602401610a0a565b6001600160a01b039092166000908152600390920160205250604090205490565b6001600160a01b03811660009081526005602052604090208054610dfc816119a3565b610e0581612159565b60018201805460ff60d01b19169055604080518281526001600160a01b03851660208201527f619bc890d3c88741caaba887a528d314fe6fa1c2ba35730eb1db180c8bdc17579101610834565b6000336001600160a01b037f00000000000000000000000000000000000000000000000000000000000000001614610e9f5760405163ca41b30160e01b8152336004820152602401610a0a565b6000829003610ec157604051633e0f836160e21b815260040160405180910390fd5b6000610ed06004828587613e6b565b610ed991613e95565b9050632c3adc7760e01b6001600160e01b0319821601610f2c57600080610f038560048189613e6b565b810190610f109190613b5e565b91509150610f1f828a83612197565b5060019350505050610fcb565b63657d3d4360e01b6001600160e01b0319821601610f7057600080610f548560048189613e6b565b810190610f619190613a14565b91509150610f1f828a83612389565b635654583160e11b6001600160e01b0319821601610fc55760008080610f99866004818a613e6b565b810190610fa691906138c1565b925092509250610fb8838b8484611f08565b6001945050505050610fcb565b60009150505b95945050505050565b6000918252600080516020614757833981519152602090815260408084206001600160a01b0393909316845291905290205460ff1690565b7f80bb2b638cc20bc4d0a60d66940f3ab4a00c1d7b313497ca82fb0b4ab007930180546060916000805160206147378339815191529161087290613cd1565b6000611058833384612389565b9392505050565b6109163383836125e1565b604080516000815260208101909152606090826001600160401b038111156110945761109461362c565b6040519080825280602002602001820160405280156110c757816020015b60608152602001906001900390816110b25790505b50915060005b8381101561114957611124308686848181106110eb576110eb613ed6565b90506020028101906110fd9190613eec565b8560405160200161111093929190613f39565b604051602081830303815290604052612692565b83828151811061113657611136613ed6565b60209081029190910101526001016110cd565b505092915050565b61115c8484846109e4565b610a6e33858585856126ff565b6000611173612828565b805490915060ff600160401b82041615906001600160401b031660008115801561119a5750825b90506000826001600160401b031660011480156111b65750303b155b9050811580156111c4575080155b156111e25760405163f92ee8a960e01b815260040160405180910390fd5b845467ffffffffffffffff19166001178555831561120c57845460ff60401b1916600160401b1785555b6112806040518060400160405280601a81526020017f6945786563204461746150726f746563746f7253686172696e670000000000008152506040518060400160405280601981526020017f69457865634461746150726f746563746f7253686172696e6700000000000000815250612851565b611288612863565b611290612863565b61129b600033611b1d565b506112c1604051806040016040528060048152602001636970667360e01b81525061091a565b6112cc600087611b1d565b50831561131357845460ff60401b19168555604051600181527fc7f505b2f371ae2175ee4913f4499e1f2633a7b5936321eed1cdaeb6115181d29060200160405180910390a15b505050505050565b6060611326826119fe565b50600061133e60408051602081019091526000815290565b9050600081511161135e5760405180602001604052806000815250611058565b806113688461286d565b604051602001611379929190613f60565b6040516020818303038152906040529392505050565b6001600160a01b0381166000908152600560205260409020546113b1816119a3565b6113ba81612159565b6113c3826128ff565b6001600160a01b0382166000908152600560209081526040808320838155600180820180546001600160d81b03191690556002820180546001600160701b03191690556004909101805469ffffffffffffffffffff1916905584845260069092528220805491929091611437908490613ec3565b9091555050604051632142170760e11b81523060048201523360248201526001600160a01b0383811660448301527f000000000000000000000000000000000000000000000000000000000000000016906342842e0e90606401600060405180830381600087803b1580156114ab57600080fd5b505af11580156114bf573d6000803e3d6000fd5b5050604080516001600160a01b038616815260006020820181905291810185905260608101919091527f701e4990df91f34f0c6e42c039715e077aa32f81af006f9f5e8165cbda0fdddd925060800190505b60405180910390a15050565b6000611058833384612197565b61153382610a74565b61153c81611a7d565b610a6e8383611bc9565b6000806115538585612955565b6001600160a01b038087166000908152600560205260408120600101549293509161158091889116612a48565b9050600061158d85612ab4565b905060006115ad88876115a360208b018b613534565b8a60800135612b88565b604051630558653560e21b81529091506001600160a01b037f0000000000000000000000000000000000000000000000000000000000000000169063156194d49061160290859087908c90879060040161429a565b6020604051808303816000875af1158015611621573d6000803e3d6000fd5b505050506040513d601f19601f8201168201806040525081019061164591906142e7565b94507f09bb563d4351a41cfcb2e1a9e3caabd85077d013afa5ef5b60cd460c56f7ff1285898660405161167a93929190614334565b60405180910390a1505050509392505050565b6001600160a01b038216600090815260056020526040902080546116b0816119a3565b6116b9846128ff565b6001820154600160d01b900460ff16156116f85760405163123c6c3b60e11b8152600481018290526001600160a01b0385166024820152604401610a0a565b6002820154600160481b900464ffffffffff161561173b57604051631e6991f160e21b8152600481018290526001600160a01b0385166024820152604401610a0a565b6004820180546001600160481b0385166101000269ffffffffffffffffffff199091161760011790556040517fec81370602852d2a562027f306877d179384b7df480e4f2c68d233de886cfd9290610d31908390879087909283526001600160a01b039190911660208301526001600160481b0316604082015260600190565b6001600160a01b0391821660009081527f80bb2b638cc20bc4d0a60d66940f3ab4a00c1d7b313497ca82fb0b4ab00793056020908152604080832093909416825291909152205460ff1690565b6001600160a01b0381166000908152600560205260409020805461182b816119a3565b61183483612d81565b60018201805460ff60d01b1916600160d01b179055604080518281526001600160a01b03851660208201527f806e162c7ef4165a275b5df55317f9f7be1e2bb257c6cc87fbbb0fabb6b2f97b9101610834565b611890826119a3565b600082815260066020526040902081906002016118ad82826143c9565b9050507fd33315cb494162d759f3ab7d813be7d0a6e0e70f717fc31c258f84a729004f788282604051611511929190614409565b6001600160a01b03821660009081526005602052604090208054611904816119a3565b61190d84612d81565b61191d604084016020850161441d565b64ffffffffff1660000361195e5761193b604084016020850161441d565b604051632a94078b60e01b815264ffffffffff9091166004820152602401610a0a565b826002830161196d82826143c9565b9050507f796fca2de82b5272091ddfd0ab5d10f279e96eb8f47150d0f63f8411399b32ac818585604051610d319392919061443a565b6119b66119af82610d72565b3383612dc9565b6119d6576040516373ed018760e01b815260048101829052602401610a0a565b50565b60006001600160e01b03198216637965db0b60e01b148061084c575061084c82612e2e565b600080611a0a83612e7e565b90506001600160a01b03811661084c57604051637e27328960e01b815260048101849052602401610a0a565b60009081527f80bb2b638cc20bc4d0a60d66940f3ab4a00c1d7b313497ca82fb0b4ab007930460205260409020546001600160a01b031690565b6109318383836001612eb8565b6119d68133612fce565b610916828260405180602001604052806000815250613007565b60008281526006602052604081206001600160a01b038516611b1257805415611ae0576040516386acf7fd60e01b815260048101859052602401610a0a565b60018101544265ffffffffffff9091161115611b1257604051634aee26f760e11b815260048101859052602401610a0a565b610fcb85858561301f565b6000600080516020614757833981519152611b388484610fd4565b611bb8576000848152602082815260408083206001600160a01b03871684529091529020805460ff19166001179055611b6e3390565b6001600160a01b0316836001600160a01b0316857f2f8788117e7eff1d82e926ec794901d17c78024a50270940304540a733656f0d60405160405180910390a4600191505061084c565b600091505061084c565b5092915050565b6000600080516020614757833981519152611be48484610fd4565b15611bb8576000848152602082815260408083206001600160a01b0387168085529252808320805460ff1916905551339287917ff6391f5c32d9c69d2a47ea670b442974b53935d1edc7fd64eb21e047a839171b9190a4600191505061084c565b6040516331a9108f60e11b81526001600160a01b0382811660048301819052916000917f00000000000000000000000000000000000000000000000000000000000000001690636352211e90602401602060405180830381865afa158015611cb1573d6000803e3d6000fd5b505050506040513d601f19601f82011682018060405250810190611cd59190613e3b565b9050336001600160a01b0382161480611d7f575060405163020604bf60e21b81526004810183905233906001600160a01b037f0000000000000000000000000000000000000000000000000000000000000000169063081812fc90602401602060405180830381865afa158015611d50573d6000803e3d6000fd5b505050506040513d601f19601f82011682018060405250810190611d749190613e3b565b6001600160a01b0316145b80611e15575060405163e985e9c560e01b81526001600160a01b0382811660048301523360248301527f0000000000000000000000000000000000000000000000000000000000000000169063e985e9c590604401602060405180830381865afa158015611df1573d6000803e3d6000fd5b505050506040513d601f19601f82011682018060405250810190611e15919061445d565b6109315760405163ede508e560e01b815260040160405180910390fd5b611e3a6134c1565b611e448383612a48565b90507f00000000000000000000000000000000000000000000000000000000000000006001600160a01b0316634b747106604051806060016040528084815260200160006001811115611e9957611e99614300565b815260408051600081526020808201835290920191909152516001600160e01b031960e084901b168152611ed091906004016144bd565b600060405180830381600087803b158015611eea57600080fd5b505af1158015611efe573d6000803e3d6000fd5b5050505092915050565b6001600160a01b0384166000908152600560205260409020611f2985613129565b60048101546001600160481b038381166101009092041614611f77576040516255350960e21b81526001600160a01b03861660048201526001600160481b0383166024820152604401610a0a565b604051632142170760e11b81523060048201526001600160a01b03848116602483015286811660448301527f000000000000000000000000000000000000000000000000000000000000000016906342842e0e90606401600060405180830381600087803b158015611fe857600080fd5b505af1158015611ffc573d6000803e3d6000fd5b505050507f00000000000000000000000000000000000000000000000000000000000000006001600160a01b03166323b872dd8561203d8460000154610d72565b60048581015460405160e086901b6001600160e01b03191681526120739493926101009092046001600160481b031691016144d0565b6020604051808303816000875af1158015612092573d6000803e3d6000fd5b505050506040513d601f19601f820116820180604052508101906120b6919061445d565b508054604080519182526001600160a01b038581166020840152871682820152517f39e9de3f8fb17aa9d0e1df99a67605205f5e86d0ac765ee0299fb8ea4f2baa219181900360600190a1505050506001600160a01b031660009081526005602052604081209081556001810180546001600160d81b03191690556002810180546001600160701b0319169055600401805469ffffffffffffffffffff19169055565b6000818152600660205260409020600101544265ffffffffffff909116106119d657604051634aee26f760e11b815260048101829052602401610a0a565b6000838152600660205260408120825160028201546001600160481b0390811691161415806121e0575060208301516002820154600160481b900464ffffffffff908116911614155b15612202578483604051632441e4e360e11b8152600401610a0a9291906144fc565b600281015461221f90600160481b900464ffffffffff164261452a565b6001600160a01b03851660009081526003830160205260409020805465ffffffffffff191665ffffffffffff838116918217909255600184015492945061226892909116613170565b60018201805465ffffffffffff191665ffffffffffff929092169190911790557f00000000000000000000000000000000000000000000000000000000000000006001600160a01b03166323b872dd856122c188610d72565b60028501546040516001600160e01b031960e086901b1681526122f29392916001600160481b0316906004016144d0565b6020604051808303816000875af1158015612311573d6000803e3d6000fd5b505050506040513d601f19601f82011682018060405250810190612335919061445d565b506040805186815265ffffffffffff841660208201526001600160a01b038616917f2366234d2d402efc07153c0d03fc5ec74a9ef5496e1accadc4b1aaf51d7f73b9910160405180910390a2509392505050565b6001600160a01b03831660009081526005602052604081206002810154600160481b900464ffffffffff1682036123de57604051631446018560e11b81526001600160a01b0386166004820152602401610a0a565b60208301516002820154600160481b900464ffffffffff90811691161415806124195750825160028201546001600160481b03908116911614155b1561243b5784836040516346aa951560e01b8152600401610a0a929190614549565b600281015461245890600160481b900464ffffffffff164261452a565b6001600160a01b03851660009081526003830160205260409020805465ffffffffffff191665ffffffffffff83811691821790925560018401549294506124a9929091600160a01b90910416613170565b8160010160146101000a81548165ffffffffffff021916908365ffffffffffff1602179055507f00000000000000000000000000000000000000000000000000000000000000006001600160a01b03166323b872dd8561250c8460000154610d72565b60028501546040516001600160e01b031960e086901b16815261253d9392916001600160481b0316906004016144d0565b6020604051808303816000875af115801561255c573d6000803e3d6000fd5b505050506040513d601f19601f82011682018060405250810190612580919061445d565b508054604080519182526001600160a01b03878116602084015286168282015265ffffffffffff84166060830152517fe2d5d453d44004623a821ef386e026d37fccbac3f56cef0cb5918cab5c11dc889181900360800190a1509392505050565b6000805160206147378339815191526001600160a01b03831661262257604051630b61174360e31b81526001600160a01b0384166004820152602401610a0a565b6001600160a01b038481166000818152600584016020908152604080832094881680845294825291829020805460ff191687151590811790915591519182527f17307eab39ab6107e8899845ad3d59bd9653f200f220920489ca2b5937696c31910160405180910390a350505050565b6060600080846001600160a01b0316846040516126af9190614580565b600060405180830381855af49150503d80600081146126ea576040519150601f19603f3d011682016040523d82523d6000602084013e6126ef565b606091505b5091509150610fcb858383613180565b6001600160a01b0383163b1561282157604051630a85bd0160e11b81526001600160a01b0384169063150b7a029061274190889088908790879060040161459c565b6020604051808303816000875af192505050801561277c575060408051601f3d908101601f19168201909252612779918101906145cf565b60015b6127e5573d8080156127aa576040519150601f19603f3d011682016040523d82523d6000602084013e6127af565b606091505b5080516000036127dd57604051633250574960e11b81526001600160a01b0385166004820152602401610a0a565b805181602001fd5b6001600160e01b03198116630a85bd0160e11b1461131357604051633250574960e11b81526001600160a01b0385166004820152602401610a0a565b5050505050565b6000807ff0c57e16840df040f15088dc2f81fe391c3923bec73e23a9662efc9c229c6a0061084c565b6128596131dc565b6109168282613201565b61286b6131dc565b565b6060600061287a83613232565b60010190506000816001600160401b038111156128995761289961362c565b6040519080825280601f01601f1916602001820160405280156128c3576020820181803683370190505b5090508181016020015b600019016f181899199a1a9b1b9c1cb0b131b232b360811b600a86061a8153600a85049450846128cd57509392505050565b6001600160a01b03811660009081526005602052604090206001015442600160a01b90910465ffffffffffff16106119d657604051637e448f1b60e11b81526001600160a01b0382166004820152602401610a0a565b600060208201351561297c57816040516385461e9b60e01b8152600401610a0a91906145ec565b6001600160a01b03831660009081526005602090815260408083208054338552600382019093529220544265ffffffffffff909116106129c15760019250505061084c565b80158015906129db57506001820154600160d01b900460ff165b8015612a0d575060008181526006602090815260408083203384526003019091529020544265ffffffffffff90911610155b15612a1d5760009250505061084c565b604051630e39d6b360e01b8152600481018290526001600160a01b0386166024820152604401610a0a565b612a506134c1565b5060408051610120810182526001600160a01b03938416815260006020808301829052600019838501526003606084015293909416608082015260a081018490523060c082015260e081018490528151938452918301905261010081019190915290565b612abc6134c1565b612ac58261330a565b90507f00000000000000000000000000000000000000000000000000000000000000006001600160a01b031663b2b07e66604051806060016040528084815260200160006001811115612b1a57612b1a614300565b815260408051600081526020808201835290920191909152516001600160e01b031960e084901b168152612b5191906004016144bd565b600060405180830381600087803b158015612b6b57600080fd5b505af1158015612b7f573d6000803e3d6000fd5b50505050919050565b604080516102008101825260008082526020820181905291810182905260608082018390526080820183905260a0820183905260c0820183905260e08201839052610100820183905261012082018390526101408201839052610160820183905261018082018390526101a082018190526101c08201929092526101e081019190915260006040518060600160405280604051806102000160405280886001600160a01b0316815260200160008152602001896001600160a01b0316815260200160008152602001876001600160a01b0316815260200160008152602001306001600160a01b0316815260200160018152602001600360001b815260200186815260200160008152602001336001600160a01b0316815260200160006001600160a01b03168152602001612cba613372565b8152602001612cc761339a565b81526040805160008082526020808301845293840191909152928452838201839052805192835290820181529182015251638dd971d560e01b81529091507f00000000000000000000000000000000000000000000000000000000000000006001600160a01b031690638dd971d590612d449084906004016145ff565b600060405180830381600087803b158015612d5e57600080fd5b505af1158015612d72573d6000803e3d6000fd5b50509151979650505050505050565b6001600160a01b03811660009081526005602052604090206004015460ff16156119d6576040516325e3e05d60e21b81526001600160a01b0382166004820152602401610a0a565b60006001600160a01b0383161580159061093f5750826001600160a01b0316846001600160a01b03161480612e035750612e0384846117bb565b8061093f5750826001600160a01b0316612e1c83611a36565b6001600160a01b031614949350505050565b60006001600160e01b031982166380ac58cd60e01b1480612e5f57506001600160e01b03198216635b5e139f60e01b145b8061084c57506301ffc9a760e01b6001600160e01b031983161461084c565b60009081527f80bb2b638cc20bc4d0a60d66940f3ab4a00c1d7b313497ca82fb0b4ab007930260205260409020546001600160a01b031690565b6000805160206147378339815191528180612edb57506001600160a01b03831615155b15612f9d576000612eeb856119fe565b90506001600160a01b03841615801590612f175750836001600160a01b0316816001600160a01b031614155b8015612f2a5750612f2881856117bb565b155b15612f535760405163a9fbf51f60e01b81526001600160a01b0385166004820152602401610a0a565b8215612f9b5784866001600160a01b0316826001600160a01b03167f8c5be1e5ebec7d5bd14f71427d1e84f3dd0314c0f7b2291e5b200ac8c7c3b92560405160405180910390a45b505b600093845260040160205250506040902080546001600160a01b0319166001600160a01b0392909216919091179055565b612fd88282610fd4565b6109165760405163e2517d3f60e01b81526001600160a01b038216600482015260248101839052604401610a0a565b61301183836133b5565b6109313360008585856126ff565b60006000805160206147378339815191528161303a85612e7e565b90506001600160a01b038416156130565761305681858761341a565b6001600160a01b0381161561309657613073600086600080612eb8565b6001600160a01b0381166000908152600383016020526040902080546000190190555b6001600160a01b038616156130c7576001600160a01b03861660009081526003830160205260409020805460010190555b600085815260028301602052604080822080546001600160a01b0319166001600160a01b038a811691821790925591518893918516917fddf252ad1be2c89b69c2b068fc378daa952ba7f163c4a11628f55a4df523b3ef91a495945050505050565b6001600160a01b03811660009081526005602052604090206004015460ff166119d6576040516346bb405d60e01b81526001600160a01b0382166004820152602401610a0a565b6000828218828411028218611058565b606082613195576131908261347e565b611058565b81511580156131ac57506001600160a01b0384163b155b156131d557604051639996b31560e01b81526001600160a01b0385166004820152602401610a0a565b5080611058565b6131e46134a7565b61286b57604051631afcd79f60e31b815260040160405180910390fd5b6132096131dc565b600080516020614737833981519152806132238482613d4d565b5060018101610a6e8382613d4d565b60008072184f03e93ff9f4daa797ed6e38ed64bf6a1f0160401b83106132715772184f03e93ff9f4daa797ed6e38ed64bf6a1f0160401b830492506040015b6d04ee2d6d415b85acef8100000000831061329d576d04ee2d6d415b85acef8100000000830492506020015b662386f26fc1000083106132bb57662386f26fc10000830492506010015b6305f5e10083106132d3576305f5e100830492506008015b61271083106132e757612710830492506004015b606483106132f9576064830492506002015b600a831061084c5760010192915050565b6133126134c1565b5060408051610120810182526001600160a01b039290921682526000602080840182905260001984840152600360608501526080840182905260a084018290523060c085015260e084018290528251918252810190915261010082015290565b60606000604051602001613386919061464d565b604051602081830303815290604052905090565b60006002600081546133ab90613e22565b9182905550919050565b6001600160a01b0382166133df57604051633250574960e11b815260006004820152602401610a0a565b60006133ed83836000611aa1565b90506001600160a01b03811615610931576040516339e3563760e11b815260006004820152602401610a0a565b613425838383612dc9565b610931576001600160a01b03831661345357604051637e27328960e01b815260048101829052602401610a0a565b60405163177e802f60e01b81526001600160a01b038316600482015260248101829052604401610a0a565b80511561348e5780518082602001fd5b60405163d6bda27560e01b815260040160405180910390fd5b60006134b1612828565b54600160401b900460ff16919050565b604080516101208101825260008082526020820181905291810182905260608082018390526080820183905260a0820183905260c0820183905260e082019290925261010081019190915290565b6001600160a01b03811681146119d657600080fd5b803561352f8161350f565b919050565b60006020828403121561354657600080fd5b81356110588161350f565b6001600160e01b0319811681146119d657600080fd5b60006020828403121561357957600080fd5b813561105881613551565b60005b8381101561359f578181015183820152602001613587565b50506000910152565b600081518084526135c0816020860160208601613584565b601f01601f19169290920160200192915050565b60208152600061105860208301846135a8565b6000602082840312156135f957600080fd5b5035919050565b6000806040838503121561361357600080fd5b823561361e8161350f565b946020939093013593505050565b634e487b7160e01b600052604160045260246000fd5b60006001600160401b038084111561365c5761365c61362c565b604051601f8501601f19908116603f011681019082821181831017156136845761368461362c565b8160405280935085815286868601111561369d57600080fd5b858560208301376000602087830101525050509392505050565b6000602082840312156136c957600080fd5b81356001600160401b038111156136df57600080fd5b8201601f810184136136f057600080fd5b61093f84823560208401613642565b6000806000806080858703121561371557600080fd5b84356137208161350f565b935060208501356137308161350f565b92506040850135915060608501356001600160401b0381111561375257600080fd5b8501601f8101871361376357600080fd5b61377287823560208401613642565b91505092959194509250565b60008060006060848603121561379357600080fd5b833561379e8161350f565b925060208401356137ae8161350f565b929592945050506040919091013590565b600080604083850312156137d257600080fd5b8235915060208301356137e48161350f565b809150509250929050565b8681526001600160a01b038616602082015265ffffffffffff8516604082015283151560608201526101008101613843608083018580516001600160481b0316825260209081015164ffffffffff16910152565b8251151560c08301526001600160481b0360208401511660e0830152979650505050505050565b60008060006060848603121561387f57600080fd5b8335925060208401356138918161350f565b915060408401356138a18161350f565b809150509250925092565b6001600160481b03811681146119d657600080fd5b6000806000606084860312156138d657600080fd5b83356138e18161350f565b925060208401356138f18161350f565b915060408401356138a1816138ac565b60008060008060006080868803121561391957600080fd5b85356139248161350f565b945060208601359350604086013561393b8161350f565b925060608601356001600160401b038082111561395757600080fd5b818801915088601f83011261396b57600080fd5b81358181111561397a57600080fd5b89602082850101111561398c57600080fd5b9699959850939650602001949392505050565b64ffffffffff811681146119d657600080fd5b6000604082840312156139c457600080fd5b604051604081018181106001600160401b03821117156139e6576139e661362c565b60405290508082356139f7816138ac565b81526020830135613a078161399f565b6020919091015292915050565b60008060608385031215613a2757600080fd5b8235613a328161350f565b9150613a4184602085016139b2565b90509250929050565b80151581146119d657600080fd5b60008060408385031215613a6b57600080fd5b8235613a768161350f565b915060208301356137e481613a4a565b60008060208385031215613a9957600080fd5b82356001600160401b0380821115613ab057600080fd5b818501915085601f830112613ac457600080fd5b813581811115613ad357600080fd5b8660208260051b8501011115613ae857600080fd5b60209290920196919550909350505050565b600060208083016020845280855180835260408601915060408160051b87010192506020870160005b82811015613b5157603f19888603018452613b3f8583516135a8565b94509285019290850190600101613b23565b5092979650505050505050565b60008060608385031215613b7157600080fd5b82359150613a4184602085016139b2565b600080600060608486031215613b9757600080fd5b8335613ba28161350f565b925060208401356001600160401b03811115613bbd57600080fd5b8401610160818703121561389157600080fd5b60008060408385031215613be357600080fd5b8235613bee8161350f565b915060208301356137e4816138ac565b83815265ffffffffffff831660208201526080810161093f604083018480516001600160481b0316825260209081015164ffffffffff16910152565b60008060408385031215613c4d57600080fd5b8235613c588161350f565b915060208301356137e48161350f565b600060408284031215613c7a57600080fd5b50919050565b60008060608385031215613c9357600080fd5b82359150613a418460208501613c68565b60008060608385031215613cb757600080fd5b8235613cc28161350f565b9150613a418460208501613c68565b600181811c90821680613ce557607f821691505b602082108103613c7a57634e487b7160e01b600052602260045260246000fd5b601f821115610931576000816000526020600020601f850160051c81016020861015613d2e5750805b601f850160051c820191505b8181101561131357828155600101613d3a565b81516001600160401b03811115613d6657613d6661362c565b613d7a81613d748454613cd1565b84613d05565b602080601f831160018114613daf5760008415613d975750858301515b600019600386901b1c1916600185901b178555611313565b600085815260208120601f198616915b82811015613dde57888601518255948401946001909101908401613dbf565b5085821015613dfc5787850151600019600388901b60f8161c191681555b5050505050600190811b01905550565b634e487b7160e01b600052601160045260246000fd5b600060018201613e3457613e34613e0c565b5060010190565b600060208284031215613e4d57600080fd5b81516110588161350f565b8082018082111561084c5761084c613e0c565b60008085851115613e7b57600080fd5b83861115613e8857600080fd5b5050820193919092039150565b6001600160e01b031981358181169160048510156111495760049490940360031b84901b1690921692915050565b8181038181111561084c5761084c613e0c565b634e487b7160e01b600052603260045260246000fd5b6000808335601e19843603018112613f0357600080fd5b8301803591506001600160401b03821115613f1d57600080fd5b602001915036819003821315613f3257600080fd5b9250929050565b828482376000838201600081528351613f56818360208801613584565b0195945050505050565b60008351613f72818460208801613584565b835190830190613f86818360208801613584565b01949350505050565b600061012060018060a01b0383511684526020830151602085015260408301516040850152606083015160608501526080830151613fd860808601826001600160a01b03169052565b5060a0830151613ff360a08601826001600160a01b03169052565b5060c083015161400e60c08601826001600160a01b03169052565b5060e083015160e0850152610100808401518282870152614031838701826135a8565b9695505050505050565b6000808335601e1984360301811261405257600080fd5b83016020810192503590506001600160401b0381111561407157600080fd5b803603821315613f3257600080fd5b81835281816020850137506000828201602090810191909152601f909101601f19169091010190565b60006101606140c8846140bb85613524565b6001600160a01b03169052565b6020830135602085015260408301356040850152606083013560608501526080830135608085015260a083013560a085015261410660c08401613524565b6001600160a01b031660c085015261412060e08401613524565b6001600160a01b031660e085015261010061413c848201613524565b6001600160a01b03169085015261012083810135908501526101406141638185018561403b565b83838801526141758488018284614080565b979650505050505050565b80516001600160a01b0316825260006102006020830151602085015260408301516141b660408601826001600160a01b03169052565b506060830151606085015260808301516141db60808601826001600160a01b03169052565b5060a083015160a085015260c083015161420060c08601826001600160a01b03169052565b5060e08381015190850152610100808401519085015261012080840151908501526101408084015190850152610160808401516001600160a01b038116828701525050610180838101516001600160a01b0381168683015250506101a0808401518282870152614272838701826135a8565b925050506101c08084015181860152506101e0808401518583038287015261403183826135a8565b6080815260006142ad6080830187613f8f565b82810360208401526142bf8187613f8f565b905082810360408401526142d381866140a9565b905082810360608401526141758185614180565b6000602082840312156142f957600080fd5b5051919050565b634e487b7160e01b600052602160045260246000fd5b600281106119d657634e487b7160e01b600052602160045260246000fd5b8381526001600160a01b03831660208201526060810161435383614316565b826040830152949350505050565b813561436c816138ac565b6001600160481b03811690508154816001600160481b0319821617835560208401356143978161399f565b6dffffffffff0000000000000000008160481b16836dffffffffffffffffffffffffffff198416171784555050505050565b6109168282614361565b80356143de816138ac565b6001600160481b0316825260208101356143f78161399f565b64ffffffffff81166020840152505050565b8281526060810161105860208301846143d3565b60006020828403121561442f57600080fd5b81356110588161399f565b8381526001600160a01b03831660208201526080810161093f60408301846143d3565b60006020828403121561446f57600080fd5b815161105881613a4a565b600081516060845261448f6060850182613f8f565b9050602083015161449f81614316565b8060208601525060408301518482036040860152610fcb82826135a8565b602081526000611058602083018461447a565b6001600160a01b0393841681529190921660208201526001600160481b03909116604082015260600190565b82815260608101611058602083018480516001600160481b0316825260209081015164ffffffffff16910152565b65ffffffffffff818116838216019080821115611bc257611bc2613e0c565b6001600160a01b038316815260608101611058602083018480516001600160481b0316825260209081015164ffffffffff16910152565b60008251614592818460208701613584565b9190910192915050565b6001600160a01b0385811682528416602082015260408101839052608060608201819052600090614031908301846135a8565b6000602082840312156145e157600080fd5b815161105881613551565b60208152600061105860208301846140a9565b60208152600082516060602084015261461b6080840182614180565b9050602084015161462b81614316565b806040850152506040840151601f19848303016060850152610fcb82826135a8565b7f7b2269657865635f726573756c745f656e6372797074696f6e223a747275650081527f2c2269657865635f726573756c745f73746f726167655f70726f766964657222601f820152611d1160f11b603f82015260006041600084546146b281613cd1565b600182811680156146ca57600181146146e557614719565b60ff1984166041890152604183151584028901019450614719565b8860005260208060002060005b8581101561470d5781548b82018a01529084019082016146f2565b50505060418389010194505b5050505061472b8161227d60f01b9052565b60020194935050505056fe80bb2b638cc20bc4d0a60d66940f3ab4a00c1d7b313497ca82fb0b4ab007930002dd7bc7dec4dceedda775e58dd541e08a116c6c53815c0bd028192f7b626800a2646970667358221220875a3ccf24bb5b5fdbe17a5c818faa8a7f142174fa11e095eb47772150d2ab6e64736f6c63430008180033",
  "linkReferences": {},
  "deployedLinkReferences": {}
}