{
  "_format": "hh-sol-artifact-1",
  "contractName": "AddOnlyAppWhitelistRegistry",
  "sourceName": "contracts/registry/AddOnlyAppWhitelistRegistry.sol",
  "abi": [
    {
      "inputs": [],
      "stateMutability": "nonpayable",
      "type": "constructor"
    },
    {
      "inputs": [
        {
          "internalType": "address",
          "name": "sender",
          "type": "address"
        },
        {
          "internalType": "uint256",
          "name": "tokenId",
          "type": "uint256"
        },
        {
          "internalType": "address",
          "name": "owner",
          "type": "address"
        }
      ],
      "name": "ERC721IncorrectOwner",
      "type": "error"
    },
    {
      "inputs": [
        {
          "internalType": "address",
          "name": "operator",
          "type": "address"
        },
        {
          "internalType": "uint256",
          "name": "tokenId",
          "type": "uint256"
        }
      ],
      "name": "ERC721InsufficientApproval",
      "type": "error"
    },
    {
      "inputs": [
        {
          "internalType": "address",
          "name": "approver",
          "type": "address"
        }
      ],
      "name": "ERC721InvalidApprover",
      "type": "error"
    },
    {
      "inputs": [
        {
          "internalType": "address",
          "name": "operator",
          "type": "address"
        }
      ],
      "name": "ERC721InvalidOperator",
      "type": "error"
    },
    {
      "inputs": [
        {
          "internalType": "address",
          "name": "owner",
          "type": "address"
        }
      ],
      "name": "ERC721InvalidOwner",
      "type": "error"
    },
    {
      "inputs": [
        {
          "internalType": "address",
          "name": "receiver",
          "type": "address"
        }
      ],
      "name": "ERC721InvalidReceiver",
      "type": "error"
    },
    {
      "inputs": [
        {
          "internalType": "address",
          "name": "sender",
          "type": "address"
        }
      ],
      "name": "ERC721InvalidSender",
      "type": "error"
    },
    {
      "inputs": [
        {
          "internalType": "uint256",
          "name": "tokenId",
          "type": "uint256"
        }
      ],
      "name": "ERC721NonexistentToken",
      "type": "error"
    },
    {
      "inputs": [],
      "name": "FailedDeployment",
      "type": "error"
    },
    {
      "inputs": [
        {
          "internalType": "uint256",
          "name": "balance",
          "type": "uint256"
        },
        {
          "internalType": "uint256",
          "name": "needed",
          "type": "uint256"
        }
      ],
      "name": "InsufficientBalance",
      "type": "error"
    },
    {
      "inputs": [],
      "name": "InvalidInitialization",
      "type": "error"
    },
    {
      "inputs": [],
      "name": "NotInitializing",
      "type": "error"
    },
    {
      "anonymous": false,
      "inputs": [
        {
          "indexed": true,
          "internalType": "address",
          "name": "owner",
          "type": "address"
        },
        {
          "indexed": true,
          "internalType": "address",
          "name": "approved",
          "type": "address"
        },
        {
          "indexed": true,
          "internalType": "uint256",
          "name": "tokenId",
          "type": "uint256"
        }
      ],
      "name": "Approval",
      "type": "event"
    },
    {
      "anonymous": false,
      "inputs": [
        {
          "indexed": true,
          "internalType": "address",
          "name": "owner",
          "type": "address"
        },
        {
          "indexed": true,
          "internalType": "address",
          "name": "operator",
          "type": "address"
        },
        {
          "indexed": false,
          "internalType": "bool",
          "name": "approved",
          "type": "bool"
        }
      ],
      "name": "ApprovalForAll",
      "type": "event"
    },
    {
      "anonymous": false,
      "inputs": [
        {
          "indexed": false,
          "internalType": "uint64",
          "name": "version",
          "type": "uint64"
        }
      ],
      "name": "Initialized",
      "type": "event"
    },
    {
      "anonymous": false,
      "inputs": [
        {
          "indexed": true,
          "internalType": "address",
          "name": "from",
          "type": "address"
        },
        {
          "indexed": true,
          "internalType": "address",
          "name": "to",
          "type": "address"
        },
        {
          "indexed": true,
          "internalType": "uint256",
          "name": "tokenId",
          "type": "uint256"
        }
      ],
      "name": "Transfer",
      "type": "event"
    },
    {
      "inputs": [],
      "name": "_implementationAddress",
      "outputs": [
        {
          "internalType": "contract AddOnlyAppWhitelist",
          "name": "",
          "type": "address"
        }
      ],
      "stateMutability": "view",
      "type": "function"
    },
    {
      "inputs": [
        {
          "internalType": "address",
          "name": "to",
          "type": "address"
        },
        {
          "internalType": "uint256",
          "name": "tokenId",
          "type": "uint256"
        }
      ],
      "name": "approve",
      "outputs": [],
      "stateMutability": "nonpayable",
      "type": "function"
    },
    {
      "inputs": [
        {
          "internalType": "address",
          "name": "owner",
          "type": "address"
        }
      ],
      "name": "balanceOf",
      "outputs": [
        {
          "internalType": "uint256",
          "name": "",
          "type": "uint256"
        }
      ],
      "stateMutability": "view",
      "type": "function"
    },
    {
      "inputs": [
        {
          "internalType": "address",
          "name": "owner",
          "type": "address"
        }
      ],
      "name": "createAddOnlyAppWhitelist",
      "outputs": [
        {
          "internalType": "contract IAddOnlyAppWhitelist",
          "name": "",
          "type": "address"
        }
      ],
      "stateMutability": "nonpayable",
      "type": "function"
    },
    {
      "inputs": [
        {
          "internalType": "uint256",
          "name": "tokenId",
          "type": "uint256"
        }
      ],
      "name": "getApproved",
      "outputs": [
        {
          "internalType": "address",
          "name": "",
          "type": "address"
        }
      ],
      "stateMutability": "view",
      "type": "function"
    },
    {
      "inputs": [],
      "name": "initialize",
      "outputs": [],
      "stateMutability": "nonpayable",
      "type": "function"
    },
    {
      "inputs": [
        {
          "internalType": "address",
          "name": "owner",
          "type": "address"
        },
        {
          "internalType": "address",
          "name": "operator",
          "type": "address"
        }
      ],
      "name": "isApprovedForAll",
      "outputs": [
        {
          "internalType": "bool",
          "name": "",
          "type": "bool"
        }
      ],
      "stateMutability": "view",
      "type": "function"
    },
    {
      "inputs": [
        {
          "internalType": "address",
          "name": "spender",
          "type": "address"
        },
        {
          "internalType": "uint256",
          "name": "tokenId",
          "type": "uint256"
        }
      ],
      "name": "isAuthorized",
      "outputs": [
        {
          "internalType": "bool",
          "name": "",
          "type": "bool"
        }
      ],
      "stateMutability": "view",
      "type": "function"
    },
    {
      "inputs": [],
      "name": "name",
      "outputs": [
        {
          "internalType": "string",
          "name": "",
          "type": "string"
        }
      ],
      "stateMutability": "view",
      "type": "function"
    },
    {
      "inputs": [
        {
          "internalType": "uint256",
          "name": "tokenId",
          "type": "uint256"
        }
      ],
      "name": "ownerOf",
      "outputs": [
        {
          "internalType": "address",
          "name": "",
          "type": "address"
        }
      ],
      "stateMutability": "view",
      "type": "function"
    },
    {
      "inputs": [
        {
          "internalType": "address",
          "name": "from",
          "type": "address"
        },
        {
          "internalType": "address",
          "name": "to",
          "type": "address"
        },
        {
          "internalType": "uint256",
          "name": "tokenId",
          "type": "uint256"
        }
      ],
      "name": "safeTransferFrom",
      "outputs": [],
      "stateMutability": "nonpayable",
      "type": "function"
    },
    {
      "inputs": [
        {
          "internalType": "address",
          "name": "from",
          "type": "address"
        },
        {
          "internalType": "address",
          "name": "to",
          "type": "address"
        },
        {
          "internalType": "uint256",
          "name": "tokenId",
          "type": "uint256"
        },
        {
          "internalType": "bytes",
          "name": "data",
          "type": "bytes"
        }
      ],
      "name": "safeTransferFrom",
      "outputs": [],
      "stateMutability": "nonpayable",
      "type": "function"
    },
    {
      "inputs": [
        {
          "internalType": "address",
          "name": "operator",
          "type": "address"
        },
        {
          "internalType": "bool",
          "name": "approved",
          "type": "bool"
        }
      ],
      "name": "setApprovalForAll",
      "outputs": [],
      "stateMutability": "nonpayable",
      "type": "function"
    },
    {
      "inputs": [
        {
          "internalType": "bytes4",
          "name": "interfaceId",
          "type": "bytes4"
        }
      ],
      "name": "supportsInterface",
      "outputs": [
        {
          "internalType": "bool",
          "name": "",
          "type": "bool"
        }
      ],
      "stateMutability": "view",
      "type": "function"
    },
    {
      "inputs": [],
      "name": "symbol",
      "outputs": [
        {
          "internalType": "string",
          "name": "",
          "type": "string"
        }
      ],
      "stateMutability": "view",
      "type": "function"
    },
    {
      "inputs": [
        {
          "internalType": "uint256",
          "name": "tokenId",
          "type": "uint256"
        }
      ],
      "name": "tokenURI",
      "outputs": [
        {
          "internalType": "string",
          "name": "",
          "type": "string"
        }
      ],
      "stateMutability": "view",
      "type": "function"
    },
    {
      "inputs": [
        {
          "internalType": "address",
          "name": "from",
          "type": "address"
        },
        {
          "internalType": "address",
          "name": "to",
          "type": "address"
        },
        {
          "internalType": "uint256",
          "name": "tokenId",
          "type": "uint256"
        }
      ],
      "name": "transferFrom",
      "outputs": [],
      "stateMutability": "nonpayable",
      "type": "function"
    }
  ],
  "bytecode": "0x608060405234801561001057600080fd5b5061001961001e565b6100d0565b7ff0c57e16840df040f15088dc2f81fe391c3923bec73e23a9662efc9c229c6a00805468010000000000000000900460ff161561006e5760405163f92ee8a960e01b815260040160405180910390fd5b80546001600160401b03908116146100cd5780546001600160401b0319166001600160401b0390811782556040519081527fc7f505b2f371ae2175ee4913f4499e1f2633a7b5936321eed1cdaeb6115181d29060200160405180910390a15b50565b611b83806100df6000396000f3fe608060405234801561001057600080fd5b506004361061010b5760003560e01c806370a08231116100a25780639a0d319e116100715780639a0d319e1461021d578063a22cb46514610230578063b88d4fde14610243578063c87b56dd14610256578063e985e9c51461026957600080fd5b806370a08231146101d95780638129fc1c146101fa57806395d89b41146102025780639680579d1461020a57600080fd5b806323b872dd116100de57806323b872dd1461018d5780632972b0f0146101a057806342842e0e146101b35780636352211e146101c657600080fd5b806301ffc9a71461011057806306fdde0314610138578063081812fc1461014d578063095ea7b314610178575b600080fd5b61012361011e3660046110ab565b61027c565b60405190151581526020015b60405180910390f35b6101406102ce565b60405161012f9190611118565b61016061015b36600461112b565b610372565b6040516001600160a01b03909116815260200161012f565b61018b610186366004611160565b610387565b005b61018b61019b36600461118a565b610396565b6101236101ae366004611160565b610426565b61018b6101c136600461118a565b610442565b6101606101d436600461112b565b610462565b6101ec6101e73660046111c6565b61046d565b60405190815260200161012f565b61018b6104c9565b61014061063e565b6101606102183660046111c6565b61067d565b600054610160906001600160a01b031681565b61018b61023e3660046111e1565b6106aa565b61018b610251366004611233565b6106b5565b61014061026436600461112b565b6106cd565b61012361027736600461130f565b610741565b60006001600160e01b031982166380ac58cd60e01b14806102ad57506001600160e01b03198216635b5e139f60e01b145b806102c857506301ffc9a760e01b6001600160e01b03198316145b92915050565b600080516020611b0283398151915280546060919081906102ee90611342565b80601f016020809104026020016040519081016040528092919081815260200182805461031a90611342565b80156103675780601f1061033c57610100808354040283529160200191610367565b820191906000526020600020905b81548152906001019060200180831161034a57829003601f168201915b505050505091505090565b600061037d8261078e565b506102c8826107c6565b610392828233610800565b5050565b6001600160a01b0382166103c557604051633250574960e11b8152600060048201526024015b60405180910390fd5b60006103d283833361080d565b9050836001600160a01b0316816001600160a01b031614610420576040516364283d7b60e01b81526001600160a01b03808616600483015260248201849052821660448201526064016103bc565b50505050565b600061043b61043483610462565b8484610917565b9392505050565b61045d838383604051806020016040528060008152506106b5565b505050565b60006102c88261078e565b6000600080516020611b028339815191526001600160a01b0383166104a8576040516322718ad960e21b8152600060048201526024016103bc565b6001600160a01b039092166000908152600390920160205250604090205490565b60006104d361093f565b805490915060ff600160401b820416159067ffffffffffffffff166000811580156104fb5750825b905060008267ffffffffffffffff1660011480156105185750303b155b905081158015610526575080155b156105445760405163f92ee8a960e01b815260040160405180910390fd5b845467ffffffffffffffff19166001178555831561056e57845460ff60401b1916600160401b1785555b6105a8604051806060016040528060398152602001611ac9603991396040518060600160405280602c8152602001611b22602c9139610968565b6040516105b490611085565b604051809103906000f0801580156105d0573d6000803e3d6000fd5b50600080546001600160a01b0319166001600160a01b0392909216919091179055831561063757845460ff60401b19168555604051600181527fc7f505b2f371ae2175ee4913f4499e1f2633a7b5936321eed1cdaeb6115181d29060200160405180910390a15b5050505050565b7f80bb2b638cc20bc4d0a60d66940f3ab4a00c1d7b313497ca82fb0b4ab00793018054606091600080516020611b02833981519152916102ee90611342565b600080548190610695906001600160a01b031661097a565b90506102c883826001600160a01b0316610987565b6103923383836109a1565b6106c0848484610396565b6104203385858585610a52565b60606106d88261078e565b5060006106f060408051602081019091526000815290565b90506000815111610710576040518060200160405280600081525061043b565b8061071a84610b7c565b60405160200161072b92919061137c565b6040516020818303038152906040529392505050565b6001600160a01b0391821660009081527f80bb2b638cc20bc4d0a60d66940f3ab4a00c1d7b313497ca82fb0b4ab00793056020908152604080832093909416825291909152205460ff1690565b60008061079a83610c0f565b90506001600160a01b0381166102c857604051637e27328960e01b8152600481018490526024016103bc565b60009081527f80bb2b638cc20bc4d0a60d66940f3ab4a00c1d7b313497ca82fb0b4ab007930460205260409020546001600160a01b031690565b61045d8383836001610c49565b6000600080516020611b028339815191528161082885610c0f565b90506001600160a01b0384161561084457610844818587610d5f565b6001600160a01b0381161561088457610861600086600080610c49565b6001600160a01b0381166000908152600383016020526040902080546000190190555b6001600160a01b038616156108b5576001600160a01b03861660009081526003830160205260409020805460010190555b600085815260028301602052604080822080546001600160a01b0319166001600160a01b038a811691821790925591518893918516917fddf252ad1be2c89b69c2b068fc378daa952ba7f163c4a11628f55a4df523b3ef91a495945050505050565b6000610924848484610dc3565b80610937575081836001600160a01b0316145b949350505050565b6000807ff0c57e16840df040f15088dc2f81fe391c3923bec73e23a9662efc9c229c6a006102c8565b610970610e28565b6103928282610e4f565b60006102c8826000610e80565b610392828260405180602001604052806000815250610f16565b600080516020611b028339815191526001600160a01b0383166109e257604051630b61174360e31b81526001600160a01b03841660048201526024016103bc565b6001600160a01b038481166000818152600584016020908152604080832094881680845294825291829020805460ff191687151590811790915591519182527f17307eab39ab6107e8899845ad3d59bd9653f200f220920489ca2b5937696c31910160405180910390a350505050565b6001600160a01b0383163b1561063757604051630a85bd0160e11b81526001600160a01b0384169063150b7a0290610a949088908890879087906004016113ab565b6020604051808303816000875af1925050508015610acf575060408051601f3d908101601f19168201909252610acc918101906113e8565b60015b610b38573d808015610afd576040519150601f19603f3d011682016040523d82523d6000602084013e610b02565b606091505b508051600003610b3057604051633250574960e11b81526001600160a01b03851660048201526024016103bc565b805181602001fd5b6001600160e01b03198116630a85bd0160e11b14610b7457604051633250574960e11b81526001600160a01b03851660048201526024016103bc565b505050505050565b60606000610b8983610f2e565b600101905060008167ffffffffffffffff811115610ba957610ba961121d565b6040519080825280601f01601f191660200182016040528015610bd3576020820181803683370190505b5090508181016020015b600019016f181899199a1a9b1b9c1cb0b131b232b360811b600a86061a8153600a8504945084610bdd57509392505050565b60009081527f80bb2b638cc20bc4d0a60d66940f3ab4a00c1d7b313497ca82fb0b4ab007930260205260409020546001600160a01b031690565b600080516020611b028339815191528180610c6c57506001600160a01b03831615155b15610d2e576000610c7c8561078e565b90506001600160a01b03841615801590610ca85750836001600160a01b0316816001600160a01b031614155b8015610cbb5750610cb98185610741565b155b15610ce45760405163a9fbf51f60e01b81526001600160a01b03851660048201526024016103bc565b8215610d2c5784866001600160a01b0316826001600160a01b03167f8c5be1e5ebec7d5bd14f71427d1e84f3dd0314c0f7b2291e5b200ac8c7c3b92560405160405180910390a45b505b600093845260040160205250506040902080546001600160a01b0319166001600160a01b0392909216919091179055565b610d6a838383610917565b61045d576001600160a01b038316610d9857604051637e27328960e01b8152600481018290526024016103bc565b60405163177e802f60e01b81526001600160a01b0383166004820152602481018290526044016103bc565b60006001600160a01b038316158015906109375750826001600160a01b0316846001600160a01b03161480610dfd5750610dfd8484610741565b806109375750826001600160a01b0316610e16836107c6565b6001600160a01b031614949350505050565b610e30611006565b610e4d57604051631afcd79f60e31b815260040160405180910390fd5b565b610e57610e28565b600080516020611b0283398151915280610e71848261144d565b5060018101610420838261144d565b600081471015610eac5760405163cf47918160e01b8152476004820152602481018390526044016103bc565b763d602d80600a3d3981f3363d3d373d3d3d363d730000008360601b60e81c176000526e5af43d82803e903d91602b57fd5bf38360781b176020526037600983f090506001600160a01b0381166102c85760405163b06ebf3d60e01b815260040160405180910390fd5b610f208383611020565b61045d336000858585610a52565b60008072184f03e93ff9f4daa797ed6e38ed64bf6a1f0160401b8310610f6d5772184f03e93ff9f4daa797ed6e38ed64bf6a1f0160401b830492506040015b6d04ee2d6d415b85acef81000000008310610f99576d04ee2d6d415b85acef8100000000830492506020015b662386f26fc100008310610fb757662386f26fc10000830492506010015b6305f5e1008310610fcf576305f5e100830492506008015b6127108310610fe357612710830492506004015b60648310610ff5576064830492506002015b600a83106102c85760010192915050565b600061101061093f565b54600160401b900460ff16919050565b6001600160a01b03821661104a57604051633250574960e11b8152600060048201526024016103bc565b60006110588383600061080d565b90506001600160a01b0381161561045d576040516339e3563760e11b8152600060048201526024016103bc565b6105bb8061150e83390190565b6001600160e01b0319811681146110a857600080fd5b50565b6000602082840312156110bd57600080fd5b813561043b81611092565b60005b838110156110e35781810151838201526020016110cb565b50506000910152565b600081518084526111048160208601602086016110c8565b601f01601f19169290920160200192915050565b60208152600061043b60208301846110ec565b60006020828403121561113d57600080fd5b5035919050565b80356001600160a01b038116811461115b57600080fd5b919050565b6000806040838503121561117357600080fd5b61117c83611144565b946020939093013593505050565b60008060006060848603121561119f57600080fd5b6111a884611144565b92506111b660208501611144565b9150604084013590509250925092565b6000602082840312156111d857600080fd5b61043b82611144565b600080604083850312156111f457600080fd5b6111fd83611144565b91506020830135801515811461121257600080fd5b809150509250929050565b634e487b7160e01b600052604160045260246000fd5b6000806000806080858703121561124957600080fd5b61125285611144565b935061126060208601611144565b925060408501359150606085013567ffffffffffffffff8082111561128457600080fd5b818701915087601f83011261129857600080fd5b8135818111156112aa576112aa61121d565b604051601f8201601f19908116603f011681019083821181831017156112d2576112d261121d565b816040528281528a60208487010111156112eb57600080fd5b82602086016020830137600060208483010152809550505050505092959194509250565b6000806040838503121561132257600080fd5b61132b83611144565b915061133960208401611144565b90509250929050565b600181811c9082168061135657607f821691505b60208210810361137657634e487b7160e01b600052602260045260246000fd5b50919050565b6000835161138e8184602088016110c8565b8351908301906113a28183602088016110c8565b01949350505050565b6001600160a01b03858116825284166020820152604081018390526080606082018190526000906113de908301846110ec565b9695505050505050565b6000602082840312156113fa57600080fd5b815161043b81611092565b601f82111561045d576000816000526020600020601f850160051c8101602086101561142e5750805b601f850160051c820191505b81811015610b745782815560010161143a565b815167ffffffffffffffff8111156114675761146761121d565b61147b816114758454611342565b84611405565b602080601f8311600181146114b057600084156114985750858301515b600019600386901b1c1916600185901b178555610b74565b600085815260208120601f198616915b828110156114df578886015182559484019460019091019084016114c0565b50858210156114fd5787850151600019600388901b60f8161c191681555b5050505050600190811b0190555056fe60a06040523360805234801561001457600080fd5b5060805161057061004b60003960008181606c01528181610129015281816101bc01528181610306015261039801526105706000f3fe608060405234801561001057600080fd5b50600436106100625760003560e01c80637c236c63146100675780638da5cb5b146100ab57806393ac9b16146100b3578063c3c5a547146100c8578063d202158d146100eb578063f2fde38b146100fe575b600080fd5b61008e7f000000000000000000000000000000000000000000000000000000000000000081565b6040516001600160a01b0390911681526020015b60405180910390f35b61008e610111565b6100c66100c13660046104bc565b6101a1565b005b6100db6100d63660046104bc565b6102a1565b60405190151581526020016100a2565b6100db6100f93660046104d9565b6102bd565b6100c661010c3660046104bc565b6102eb565b6040516331a9108f60e11b81523060048201526000907f00000000000000000000000000000000000000000000000000000000000000006001600160a01b031690636352211e90602401602060405180830381865afa158015610178573d6000803e3d6000fd5b505050506040513d601f19601f8201168201806040525081019061019c91906104fb565b905090565b6040516302972b0f60e41b81523360048201523060248201527f00000000000000000000000000000000000000000000000000000000000000006001600160a01b031690632972b0f090604401602060405180830381865afa15801561020b573d6000803e3d6000fd5b505050506040513d601f19601f8201168201806040525081019061022f9190610518565b61024c5760405163686458e760e11b815260040160405180910390fd5b6102626001600160a01b03821660046001610437565b6040516001600160a01b03821681527ff4ef25a4fef731446d3e674bcf3bd90bba639303a0b8f40a21401bf5cf8a19bd9060200160405180910390a150565b60006102b76001600160a01b03831660046102bd565b92915050565b600082815260208181526040808320600885901c8452909152812054600160ff84161b1615155b9392505050565b6040516302972b0f60e41b81523360048201523060248201527f00000000000000000000000000000000000000000000000000000000000000006001600160a01b031690632972b0f090604401602060405180830381865afa158015610355573d6000803e3d6000fd5b505050506040513d601f19601f820116820180604052508101906103799190610518565b6103965760405163686458e760e11b815260040160405180910390fd5b7f00000000000000000000000000000000000000000000000000000000000000006001600160a01b03166323b872dd6103cd610111565b60405160e083901b6001600160e01b03191681526001600160a01b0391821660048201529084166024820152306044820152606401600060405180830381600087803b15801561041c57600080fd5b505af1158015610430573d6000803e3d6000fd5b5050505050565b6000838152602081905260409020610450908383610455565b505050565b801561047f57600882901c60009081526020849052604090208054600160ff85161b179055505050565b600882901c60009081526020849052604090208054600160ff85161b19169055505050565b6001600160a01b03811681146104b957600080fd5b50565b6000602082840312156104ce57600080fd5b81356102e4816104a4565b600080604083850312156104ec57600080fd5b50508035926020909101359150565b60006020828403121561050d57600080fd5b81516102e4816104a4565b60006020828403121561052a57600080fd5b815180151581146102e457600080fdfea2646970667358221220a9df888a790e374adfdcec15c9c29018563a2c35f6567d14b96cbe6423ce5a1364736f6c634300081800336945786563204461746150726f746563746f7253686172696e67204170706c69636174696f6e2057686974656c69737420526567697374727980bb2b638cc20bc4d0a60d66940f3ab4a00c1d7b313497ca82fb0b4ab007930069457865634461746150726f746563746f7253686172696e674164644f6e6c7941707057686974656c697374a26469706673582212207ebaae22a072b8d41c86e96d4851a6bbdf8707029ec7f565b8a78dc4fa22805164736f6c63430008180033",
  "linkReferences": {},
  "deployedLinkReferences": {}
}