{"contracts/DatasetRegistryMock.sol":{"DatasetRegistryMock":{"abi":[{"inputs":[{"internalType":"address","name":"_datasetOwner","type":"address"},{"internalType":"string","name":"_datasetName","type":"string"},{"internalType":"bytes","name":"_datasetMultiaddr","type":"bytes"},{"internalType":"bytes32","name":"_datasetChecksum","type":"bytes32"}],"name":"createDataset","outputs":[{"internalType":"contract IDataset","name":"","type":"address"}],"stateMutability":"nonpayable","type":"function"}],"evm":{"bytecode":{"linkReferences":{},"object":"6080604052348015600f57600080fd5b506101818061001f6000396000f3fe608060405234801561001057600080fd5b506004361061002b5760003560e01c80633354bcdb14610030575b600080fd5b61004a61003e3660046100af565b60009695505050505050565b6040516001600160a01b03909116815260200160405180910390f35b60008083601f84011261007857600080fd5b50813567ffffffffffffffff81111561009057600080fd5b6020830191508360208285010111156100a857600080fd5b9250929050565b600080600080600080608087890312156100c857600080fd5b86356001600160a01b03811681146100df57600080fd5b9550602087013567ffffffffffffffff8111156100fb57600080fd5b61010789828a01610066565b909650945050604087013567ffffffffffffffff81111561012757600080fd5b61013389828a01610066565b979a969950949794969560609095013594935050505056fea26469706673582212202309c854e67905caf462e5bb05fd1aff01ecf016be257d1b9de3af328543c70464736f6c634300081d0033","opcodes":"PUSH1 0x80 PUSH1 0x40 MSTORE CALLVALUE DUP1 ISZERO PUSH1 0xF JUMPI PUSH1 0x0 DUP1 REVERT JUMPDEST POP PUSH2 0x181 DUP1 PUSH2 0x1F PUSH1 0x0 CODECOPY PUSH1 0x0 RETURN INVALID PUSH1 0x80 PUSH1 0x40 MSTORE CALLVALUE DUP1 ISZERO PUSH2 0x10 JUMPI PUSH1 0x0 DUP1 REVERT JUMPDEST POP PUSH1 0x4 CALLDATASIZE LT PUSH2 0x2B JUMPI PUSH1 0x0 CALLDATALOAD PUSH1 0xE0 SHR DUP1 PUSH4 0x3354BCDB EQ PUSH2 0x30 JUMPI JUMPDEST PUSH1 0x0 DUP1 REVERT JUMPDEST PUSH2 0x4A PUSH2 0x3E CALLDATASIZE PUSH1 0x4 PUSH2 0xAF JUMP JUMPDEST PUSH1 0x0 SWAP7 SWAP6 POP POP POP POP POP POP JUMP JUMPDEST PUSH1 0x40 MLOAD PUSH1 0x1 PUSH1 0x1 PUSH1 0xA0 SHL SUB SWAP1 SWAP2 AND DUP2 MSTORE PUSH1 0x20 ADD PUSH1 0x40 MLOAD DUP1 SWAP2 SUB SWAP1 RETURN JUMPDEST PUSH1 0x0 DUP1 DUP4 PUSH1 0x1F DUP5 ADD SLT PUSH2 0x78 JUMPI PUSH1 0x0 DUP1 REVERT JUMPDEST POP DUP2 CALLDATALOAD PUSH8 0xFFFFFFFFFFFFFFFF DUP2 GT ISZERO PUSH2 0x90 JUMPI PUSH1 0x0 DUP1 REVERT JUMPDEST PUSH1 0x20 DUP4 ADD SWAP2 POP DUP4 PUSH1 0x20 DUP3 DUP6 ADD ADD GT ISZERO PUSH2 0xA8 JUMPI PUSH1 0x0 DUP1 REVERT JUMPDEST SWAP3 POP SWAP3 SWAP1 POP JUMP JUMPDEST PUSH1 0x0 DUP1 PUSH1 0x0 DUP1 PUSH1 0x0 DUP1 PUSH1 0x80 DUP8 DUP10 SUB SLT ISZERO PUSH2 0xC8 JUMPI PUSH1 0x0 DUP1 REVERT JUMPDEST DUP7 CALLDATALOAD PUSH1 0x1 PUSH1 0x1 PUSH1 0xA0 SHL SUB DUP2 AND DUP2 EQ PUSH2 0xDF JUMPI PUSH1 0x0 DUP1 REVERT JUMPDEST SWAP6 POP PUSH1 0x20 DUP8 ADD CALLDATALOAD PUSH8 0xFFFFFFFFFFFFFFFF DUP2 GT ISZERO PUSH2 0xFB JUMPI PUSH1 0x0 DUP1 REVERT JUMPDEST PUSH2 0x107 DUP10 DUP3 DUP11 ADD PUSH2 0x66 JUMP JUMPDEST SWAP1 SWAP7 POP SWAP5 POP POP PUSH1 0x40 DUP8 ADD CALLDATALOAD PUSH8 0xFFFFFFFFFFFFFFFF DUP2 GT ISZERO PUSH2 0x127 JUMPI PUSH1 0x0 DUP1 REVERT JUMPDEST PUSH2 0x133 DUP10 DUP3 DUP11 ADD PUSH2 0x66 JUMP JUMPDEST SWAP8 SWAP11 SWAP7 SWAP10 POP SWAP5 SWAP8 SWAP5 SWAP7 SWAP6 PUSH1 0x60 SWAP1 SWAP6 ADD CALLDATALOAD SWAP5 SWAP4 POP POP POP POP JUMP INVALID LOG2 PUSH5 0x6970667358 0x22 SLT KECCAK256 0x23 MULMOD 0xC8 SLOAD DUPN 0x79 SDIV 0xCA DELEGATECALL PUSH3 0xE5BB05 REVERT BYTE SELFDESTRUCT ADD EOFCREATE 0xF0 AND 0xBE 0x25 PUSH30 0x1B9DE3AF328543C70464736F6C634300081D003300000000000000000000 "},"methodIdentifiers":{"createDataset(address,string,bytes,bytes32)":"3354bcdb"}}}}}