{
  "_format": "hh-sol-artifact-1",
  "contractName": "DataProtector",
  "sourceName": "contracts/DataProtector.sol",
  "abi": [
    {
      "inputs": [
        {
          "internalType": "contract IDatasetRegistry",
          "name": "_registry",
          "type": "address"
        }
      ],
      "stateMutability": "nonpayable",
      "type": "constructor"
    },
    {
      "anonymous": false,
      "inputs": [
        {
          "indexed": true,
          "internalType": "contract IDataset",
          "name": "dataset",
          "type": "address"
        },
        {
          "indexed": false,
          "internalType": "string",
          "name": "schema",
          "type": "string"
        }
      ],
      "name": "DatasetSchema",
      "type": "event"
    },
    {
      "inputs": [
        {
          "internalType": "address",
          "name": "_datasetOwner",
          "type": "address"
        },
        {
          "internalType": "string",
          "name": "_datasetName",
          "type": "string"
        },
        {
          "internalType": "string",
          "name": "_datasetSchema",
          "type": "string"
        },
        {
          "internalType": "bytes",
          "name": "_datasetMultiaddr",
          "type": "bytes"
        },
        {
          "internalType": "bytes32",
          "name": "_datasetChecksum",
          "type": "bytes32"
        }
      ],
      "name": "createDatasetWithSchema",
      "outputs": [
        {
          "internalType": "contract IDataset",
          "name": "",
          "type": "address"
        }
      ],
      "stateMutability": "nonpayable",
      "type": "function"
    },
    {
      "inputs": [],
      "name": "registry",
      "outputs": [
        {
          "internalType": "contract IDatasetRegistry",
          "name": "",
          "type": "address"
        }
      ],
      "stateMutability": "view",
      "type": "function"
    }
  ],
  "bytecode": "0x60a0604052348015600f57600080fd5b50604051610415380380610415833981016040819052602c91603c565b6001600160a01b0316608052606a565b600060208284031215604d57600080fd5b81516001600160a01b0381168114606357600080fd5b9392505050565b60805161038b61008a60003960008181606f01526096015261038b6000f3fe608060405234801561001057600080fd5b50600436106100365760003560e01c8063167fbf5f1461003b5780637b1039991461006a575b600080fd5b61004e6100493660046101e0565b610091565b6040516001600160a01b03909116815260200160405180910390f35b61004e7f000000000000000000000000000000000000000000000000000000000000000081565b6000807f00000000000000000000000000000000000000000000000000000000000000006001600160a01b0316633354bcdb8b8b8b8989896040518763ffffffff1660e01b81526004016100ea969594939291906102c9565b6020604051808303816000875af1158015610109573d6000803e3d6000fd5b505050506040513d601f19601f8201168201806040525081019061012d9190610315565b9050806001600160a01b03167f37b19b8900a9b045473748167f459fa16828f33c13d71473bca4b5e52e5f4d5d888860405161016a929190610339565b60405180910390a29998505050505050505050565b6001600160a01b038116811461019457600080fd5b50565b60008083601f8401126101a957600080fd5b50813567ffffffffffffffff8111156101c157600080fd5b6020830191508360208285010111156101d957600080fd5b9250929050565b60008060008060008060008060a0898b0312156101fc57600080fd5b88356102078161017f565b9750602089013567ffffffffffffffff81111561022357600080fd5b61022f8b828c01610197565b909850965050604089013567ffffffffffffffff81111561024f57600080fd5b61025b8b828c01610197565b909650945050606089013567ffffffffffffffff81111561027b57600080fd5b6102878b828c01610197565b999c989b50969995989497949560800135949350505050565b81835281816020850137506000828201602090810191909152601f909101601f19169091010190565b6001600160a01b03871681526080602082018190526000906102ee90830187896102a0565b82810360408401526103018186886102a0565b915050826060830152979650505050505050565b60006020828403121561032757600080fd5b81516103328161017f565b9392505050565b60208152600061034d6020830184866102a0565b94935050505056fea2646970667358221220f178247810e731b2c7a76fcefad2ca335779409b90779f5dbe730d9eac01709164736f6c634300081d0033",
  "linkReferences": {},
  "deployedLinkReferences": {}
}